:100000000C942A000C94050E0C94460E0C94470098
:100010000C9447000C9447000C9447000C94470044
:100020000C9447000C9447000C9447000C94470034
:100030000C9447000C9447000C9447000C94470024
:100040000C9447000C9447000C9447000C94470014
:100050000C94470011241FBECFE5D8E0DEBFCDBF12
:1000600010E0A0E6B0E0EAE9FDE102C005900D92E3
:10007000A438B107D9F710E0A4E8B0E001C01D92A0
:10008000A538B107E1F70E94E90D0C94CB0E0C9452
:100090000000EF92FF920F931F937B018C0120E0F1
:1000A00030E040E05FE40E94490388238CF0C801FF
:1000B000B70120E030E040E05FE40E94C1010E940F
:1000C000A9039B01AC01205030404040504806C07D
:1000D000C801B7010E94A9039B01AC01B901CA0183
:1000E0001F910F91FF90EF900895A0E0B0E0EBE733
:1000F000F0E00C94940EDC012B01FA019C919230FB
:1001000008F439C1EB018881823008F433C194309E
:1001100069F4843009F02FC111969C91119789815F
:10012000981709F428C1A0E6B0E025C1843009F48D
:1001300021C18230A9F4923009F01DC19A01AD01AC
:1001400088E0EA010990AE01E90109929E0181501F
:10015000C1F7E201898111969C918923818308C1AD
:10016000923009F407C112962D903C901397EB0141
:100170008A819B811496AD90BD90CD90DC901797AD
:10018000EC80FD800E811F819101281B390BB90184
:1001900037FF04C066277727621B730B6032710537
:1001A0000CF061C0121613066CF537014801062EDB
:1001B00004C096948794779467940A94D2F721E0C8
:1001C00030E040E050E004C0220F331F441F551FB1
:1001D0006A95D2F721503040404050402E213F21B7
:1001E00040235123211531054105510521F021E01E
:1001F00030E040E050E079018A01E628F72808293C
:1002000019293CC0232BD1F1260E371E350146019A
:10021000062E04C096948794779467940A94D2F734
:1002200021E030E040E050E004C0220F331F441FC3
:10023000551F6A95D2F721503040404050402A2146
:100240003B214C215D21211531054105510521F04E
:1002500021E030E040E050E059016A01A628B728CB
:10026000C828D9280BC0821593052CF01C01AA249C
:10027000BB24650103C0EE24FF24870111969C91E5
:10028000D20111968C91981709F445C0992339F041
:10029000A80197012A193B094C095D0906C0A6016E
:1002A00095012E193F09400B510B57FD08C01182D3
:1002B0003382228224833583468357831DC081E0A5
:1002C00081833382228288279927DC01821B930B4A
:1002D000A40BB50B84839583A683B7830DC0220F2F
:1002E000331F441F551F24833583468357838281E0
:1002F000938101979383828324813581468157813D
:10030000DA01C9010197A109B1098F5F9F4FAF4F72
:10031000BF4328F30BC0918333822282EA0CFB1C7B
:100320000C1D1D1DE482F5820683178383E0808304
:10033000248135814681578157FF1AC0C901AA27F8
:1003400097FDA095BA2F81709070A070B0705695EF
:10035000479537952795822B932BA42BB52B848318
:100360009583A683B7838281938101969383828349
:10037000DF0101C0D201CD01CDB7DEB7E2E10C94BF
:10038000B00EA0E2B0E0E7ECF1E00C94A00E6983BF
:100390007A838B839C832D833E834F835887E9E048
:1003A000EE2EF12CEC0EFD1ECE010196B7010E943F
:1003B000D2048E010F5E1F4FCE010596B8010E9438
:1003C000D2048A8991E089278A8BC701B801AE01DE
:1003D000475E5F4F0E9475000E94FD03A096E6E015
:1003E0000C94BC0EA0E2B0E0E8EFF1E00C94A00E9B
:1003F00069837A838B839C832D833E834F835887C5
:10040000F9E0EF2EF12CEC0EFD1ECE010196B701A6
:100410000E94D2048E010F5E1F4FCE010596B801D7
:100420000E94D204C701B801AE01475E5F4F0E942F
:1004300075000E94FD03A096E6E00C94BC0EA0E2BD
:10044000B0E0E5E2F2E00C94940E69837A838B834A
:100450009C832D833E834F835887CE010196BE0136
:10046000675F7F4F0E94D204CE010596BE016F5E8A
:100470007F4F0E94D2049985923088F0898982301A
:10048000C8F0943019F4823051F404C0843029F457
:10049000923081F480E690E0C6C0923049F420E0CA
:1004A0009A858A89981321E02A87CE010996BBC0D4
:1004B000823049F420E09A858A89981321E02A8BBA
:1004C000CE014196B0C02D843E844F8458886D88FB
:1004D0007E888F88988CEE24FF248701AA24BB2471
:1004E000650140E050E060E070E0E0E0F0E0C10174
:1004F00081709070892BE9F0E60CF71C081D191D1E
:100500009A01AB012A0D3B1D4C1D5D1D80E090E062
:10051000A0E0B0E0E614F7040805190520F481E036
:1005200090E0A0E0B0E0BA01A901480F591F6A1F8E
:100530007B1FAA0CBB1CCC1CDD1C97FE08C081E0F5
:1005400090E0A0E0B0E0A82AB92ACA2ADB2A3196B6
:10055000E032F10549F0660C771C881C991C569412
:10056000479437942794C3CFFA85EA892B893C892D
:100570008B859C85280F391F2E5F3F4F17C0CA01FE
:1005800081709070892B61F016950795F794E79428
:1005900080E090E0A0E0B0E8E82AF92A0A2B1B2BC3
:1005A00076956795579547952F5F3F4F77FDE7CF36
:1005B0000CC0440F551F661F771F17FD4160EE0CDE
:1005C000FF1C001F111F21503040403090E05907A0
:1005D00090E0690790E4790760F32B8F3C8FDB0193
:1005E000CA018F779070A070B07080349105A1051A
:1005F000B10561F447FD0AC0E114F10401051105DC
:1006000029F0405C5F4F6F4F7F4F40781A8EFE1786
:1006100011F081E08A8F4D8F5E8F6F8F78A383E01A
:10062000898FCE0149960E94FD03A096E2E10C94C9
:10063000B00EA8E1B0E0EFE1F3E00C94A00E698306
:100640007A838B839C832D833E834F83588789E0F5
:10065000E82EF12CEC0EFD1ECE010196B7010E9492
:10066000D2048E010F5E1F4FCE010596B8010E9485
:10067000D2048985823040F08989823028F0C70110
:10068000B8010E944A0501C08FEF6896E6E00C941D
:10069000BC0EA8E1B0E0EFE4F3E00C94A00E698397
:1006A0007A838B839C832D833E834F83588789E095
:1006B000E82EF12CEC0EFD1ECE010196B7010E9432
:1006C000D2048E010F5E1F4FCE010596B8010E9425
:1006D000D2048985823040F08989823028F0C701B0
:1006E000B8010E944A0501C08FEF6896E6E00C94BD
:1006F000BC0EA8E1B0E0EFE7F3E00C94A00E698334
:100700007A838B839C832D833E834F83588789E034
:10071000E82EF12CEC0EFD1ECE010196B7010E94D1
:10072000D2048E010F5E1F4FCE010596B8010E94C4
:10073000D2048985823040F08989823028F0C7014F
:10074000B8010E944A0501C081E06896E6E00C9479
:10075000BC0EACE0B0E0EFEAF3E00C94A40E6983C9
:100760007A838B839C83CE010196BE016B5F7F4FA2
:100770000E94D2048D81823061F1823050F1843048
:1007800021F48E81882351F12EC02F81388537FDC9
:1007900020C06E812F3131051CF06623F9F023C093
:1007A0008EE190E0821B930B29853A854B855C8511
:1007B00004C056954795379527958A95D2F76623B5
:1007C000B1F050954095309521953F4F4F4F5F4F79
:1007D0000EC020E030E040E050E009C02FEF3FEFD6
:1007E0004FEF5FE704C020E030E040E050E8B9019F
:1007F000CA012C96E2E00C94C00EDF92EF92FF92B9
:100800000F931F93FC01E480F58006811781D1804E
:100810008081823048F480E090E0A0E1B0E0E82AF6
:10082000F92A0A2B1B2BA5C0843009F49FC0823003
:1008300021F4EE24FF24870105C0E114F104010531
:10084000110519F4E0E0F0E096C0628173819FEF3A
:10085000623879070CF05BC022E83FEF261B370BAC
:100860002A3131052CF020E030E040E050E02AC091
:10087000B801A701022E04C0769567955795479554
:100880000A94D2F781E090E0A0E0B0E004C0880FC5
:10089000991FAA1FBB1F2A95D2F70197A109B10979
:1008A0008E219F21A023B1230097A105B10521F03E
:1008B00081E090E0A0E0B0E09A01AB01282B392B59
:1008C0004A2B5B2BDA01C9018F779070A070B07052
:1008D00080349105A105B10539F427FF09C0205CDA
:1008E0003F4F4F4F5F4F04C0215C3F4F4F4F5F4F13
:1008F000E0E0F0E02030A0E03A07A0E04A07A0E402
:100900005A0710F0E1E0F0E079018A0127C0603871
:10091000710564F5FB01E158FF4FD801C7018F77DE
:100920009070A070B07080349105A105B10539F4C4
:10093000E7FE0DC080E490E0A0E0B0E004C08FE3EB
:1009400090E0A0E0B0E0E80EF91E0A1F1B1F17FFA1
:1009500005C016950795F794E794319687E01695AC
:100960000795F794E7948A95D1F705C0EE24FF2404
:100970008701EFEFF0E06E2F679566276795902F60
:100980009F77D794DD24D7948E2F8695492F462BB9
:10099000582F5D29B701CA011F910F91FF90EF9069
:1009A000DF900895FC01DB01408151812281622F9B
:1009B0006F7770E0221F2227221F9381892F880FD3
:1009C000822B282F30E0991F9927991F11969C930D
:1009D000119721153105A9F54115510561057105DD
:1009E00011F482E037C082E89FEF13969C938E93B8
:1009F00012979A01AB0167E0220F331F441F551F66
:100A00006A95D1F783E08C930DC0220F331F441FEA
:100A1000551F12968D919C911397019713969C9355
:100A20008E931297203080E0380780E0480780E4FA
:100A3000580758F314962D933D934D935C93179755
:100A400008952F3F310579F4411551056105710570
:100A500019F484E08C93089564FF03C081E08C93C3
:100A600012C01C9210C02F57304013963C932E9307
:100A7000129783E08C9387E0440F551F661F771F02
:100A80008A95D1F7706414964D935D936D937C9322
:100A9000179708951F93DC01FB019C91923008F495
:100AA00047C08081823008F443C0943051F41196DD
:100AB0001C91843099F58181682F70E0611B710968
:100AC0003FC0843021F0923031F48230B9F181811D
:100AD000882389F12DC011961C9111978230F1F075
:100AE00081811817D9F412962D913C911397828128
:100AF00093818217930794F028173907BCF0149656
:100B00008D919D910D90BC91A02D248135814681C0
:100B10005781281739074A075B0718F4112341F05A
:100B20000AC082179307A407B50740F4112319F0F0
:100B300061E070E005C06FEF7FEF02C060E070E041
:100B4000CB011F910895DF93CF9300D000D00F9277
:100B5000CDB7DEB78B831A82198281E06FEF0E94D6
:100B6000050A19823AC199818B81981769F48981A4
:100B7000882F90E0FC01E859FF4F908181E0692FB8
:100B80000E944D0A8A832DC189818A3008F422C1CE
:100B90008B81282F30E03D832C838C819D8189348B
:100BA000910509F4C5C02C813D812A343105BCF57D
:100BB0008C819D818434910509F492C02C813D8102
:100BC000253431059CF48C819D818234910509F492
:100BD00077C02C813D81233431050CF079C08C81A4
:100BE0009D818134910509F463C0F2C02C813D815F
:100BF0002634310509F484C08C819D8186349105A9
:100C00000CF476C02C813D812734310509F480C075
:100C10008C819D818834910509F482C0D9C02C81D2
:100C20003D812335310509F4B3C08C819D81843524
:100C30009105FCF42C813D812C34310509F488C0E8
:100C40008C819D818D3491053CF42C813D812A3429
:100C5000310509F475C0BCC08C819D818F3491052C
:100C600009F47EC02C813D812035310509F480C016
:100C7000AFC08C819D818137910509F481C02C81A1
:100C80003D81223731053CF48C819D81853591056C
:100C900009F48EC09DC02C813D812437310509F4B3
:100CA0007FC08C819D818937910509F489C090C0EE
:100CB0009091720081E0692F0E944D0A8A838AC058
:100CC0009091730081E0692F0E944D0A8A8382C04F
:100CD0009091740081E0692F0E944D0A8A837AC046
:100CE0009091750081E0692F0E944D0A8A8372C03D
:100CF0009091760081E0692F0E944D0A8A836AC034
:100D00009091770081E0692F0E944D0A8A8362C02A
:100D10009091780081E0692F0E944D0A8A835AC021
:100D20009091790081E0692F0E944D0A8A8352C018
:100D300090917A0081E0692F0E944D0A8A834AC00F
:100D400090917B0081E0692F0E944D0A8A8342C006
:100D500090917C0081E0692F0E944D0A8A833AC0FD
:100D600090917D0081E0692F0E944D0A8A8332C0F4
:100D700090917E0081E0692F0E944D0A8A832AC0EB
:100D800090917F0081E0692F0E944D0A8A8322C0E2
:100D90009091800081E0692F0E944D0A8A831AC0D9
:100DA0009091810081E0692F0E944D0A8A8312C0D0
:100DB0009091820081E0692F0E944D0A8A830AC0C7
:100DC0009091830081E0692F0E944D0A8A8302C0BE
:100DD00081E08A8389818F5F898389818D3108F4DD
:100DE000C2CE89818D3111F481E08A838A810F908E
:100DF0000F900F900F900F90CF91DF910895DF9398
:100E0000CF9300D000D00F92CDB7DEB78B831A827C
:100E1000198280E06FEF0E94050A19823AC1998118
:100E20008B81981769F48981882F90E0FC01E8593B
:100E3000FF4F908180E0692F0E944D0A8A832DC167
:100E400089818A3008F422C18B81282F30E03D83CC
:100E50002C838C819D818934910509F4C5C02C8136
:100E60003D812A343105BCF58C819D818434910506
:100E700009F492C02C813D81253431059CF48C818C
:100E80009D818234910509F477C02C813D81233402
:100E900031050CF079C08C819D818134910509F474
:100EA00063C0F2C02C813D812634310509F484C031
:100EB0008C819D81863491050CF476C02C813D8116
:100EC0002734310509F480C08C819D8188349105D7
:100ED00009F482C0D9C02C813D812335310509F444
:100EE000B3C08C819D8184359105FCF42C813D81BA
:100EF0002C34310509F488C08C819D818D34910595
:100F00003CF42C813D812A34310509F475C0BCC004
:100F10008C819D818F34910509F47EC02C813D81A7
:100F20002035310509F480C0AFC08C819D818137A7
:100F3000910509F481C02C813D81223731053CF4B3
:100F40008C819D818535910509F48EC09DC02C81D1
:100F50003D812437310509F47FC08C819D8189371B
:100F6000910509F489C090C09091720080E0692FCA
:100F70000E944D0A8A838AC09091730080E0692F95
:100F80000E944D0A8A8382C09091740080E0692F8C
:100F90000E944D0A8A837AC09091750080E0692F83
:100FA0000E944D0A8A8372C09091760080E0692F7A
:100FB0000E944D0A8A836AC09091770080E0692F71
:100FC0000E944D0A8A8362C09091780080E0692F68
:100FD0000E944D0A8A835AC09091790080E0692F5F
:100FE0000E944D0A8A8352C090917A0080E0692F56
:100FF0000E944D0A8A834AC090917B0080E0692F4D
:101000000E944D0A8A8342C090917C0080E0692F43
:101010000E944D0A8A833AC090917D0080E0692F3A
:101020000E944D0A8A8332C090917E0080E0692F31
:101030000E944D0A8A832AC090917F0080E0692F28
:101040000E944D0A8A8322C09091800080E0692F1F
:101050000E944D0A8A831AC09091810080E0692F16
:101060000E944D0A8A8312C09091820080E0692F0D
:101070000E944D0A8A830AC09091830080E0692F04
:101080000E944D0A8A8302C081E08A8389818F5F32
:10109000898389818D3108F4C2CE89818D3111F423
:1010A00081E08A838A810F900F900F900F900F90AC
:1010B000CF91DF910895DF93CF9300D000D00F92AE
:1010C000CDB7DEB78D831C821B821A8219828D8177
:1010D000843618F081E08C8345C081E06FEF0E9478
:1010E000050A80E06FEF0E94050A8D819AE0692F62
:1010F0000E94880E8B83198213C099818B81981767
:1011000061F48981882F90E0FC01E859FF4F9081BC
:1011100080E0692F0E944D0A06C089818F5F898314
:1011200089818A3050F38D819AE0692F0E94880E60
:10113000892F8A83198213C099818A81981761F453
:101140008981882F90E0FC01E859FF4F908181E070
:10115000692F0E944D0A06C089818F5F898389812A
:101160008C3150F38C810F900F900F900F900F9057
:10117000CF91DF910895DF93CF9300D00F92CDB739
:10118000DEB78A836B8319828A81843018F48B815D
:10119000883018F081E089830AC08A816B8140E041
:1011A0000E94950A8A816B8141E00E94640B8981CB
:1011B0000F900F900F90CF91DF910895DF93CF9311
:1011C000CDB7DEB7A2970FB6F894DEBF0FBECDBF86
:1011D0008F8F68A35AA349A31D8E1E8E8F8D8430D6
:1011E00018F488A1883018F081E08D8F04C19E0129
:1011F000225E3F4F8F8D68A1A9010E948C0C8E8DBD
:10120000882309F0F4C080E090E0A0E2B1E4898F87
:101210009A8FAB8FBC8F698D7A8D8B8D9C8D20E0E2
:1012200030E04AEF54E40E941F02DC01CB018D8BB9
:101230009E8BAF8BB88F6D897E898F89988D20E0CA
:1012400030E040E85FE30E94790388232CF481E0DA
:1012500090E09C8B8B8B3FC06D897E898F89988DA8
:1012600020E03FEF4FE757E40E94190318164CF5B2
:10127000698D7A8D8B8D9C8D20E030E040E251E4C9
:101280000E941F02DC01CB01BC01CD010E9449007C
:10129000DC01CB019C8B8B8B0FC088EC90E09A8B90
:1012A000898B89899A890197F1F79A8B898B8B8928
:1012B0009C8901979C8B8B8B8B899C89009769F704
:1012C0001DC06D897E898F89988D0E944900DC013F
:1012D000CB019C8B8B8B8B899C89988B8F878F857F
:1012E00098890197F1F7988B8F8708C09E01225E3D
:1012F0003F4F8F8D68A1A9010E948C0C8E8D81308B
:10130000A9F780E090E0A0E2B1E48B879C87AD87ED
:10131000BE876B857C858D859E8520E030E04AEF19
:1013200054E40E941F02DC01CB018F839887A987B8
:10133000BA876F81788589859A8520E030E040E81A
:101340005FE30E94790388232CF481E090E09E8380
:101350008D833FC06F81788589859A8520E03FEF36
:101360004FE757E40E94190318164CF56B857C85EE
:101370008D859E8520E030E040E251E40E941F020E
:10138000DC01CB01BC01CD010E944900DC01CB0195
:101390009E838D830FC088EC90E09C838B838B8130
:1013A0009C810197F1F79C838B838D819E810197AE
:1013B0009E838D838D819E81009769F714C06F8114
:1013C000788589859A850E944900DC01CB019E833E
:1013D0008D838D819E819A83898389819A810197EA
:1013E000F1F79A838983E9A1FAA1108204C0E9A1E7
:1013F000FAA181E080838D8DA2960FB6F894DEBFAE
:101400000FBECDBFCF91DF910895DF93CF9300D072
:1014100000D00F92CDB7DEB78A836B8319828A81A1
:10142000282F30E03D832C838C819D818130910574
:10143000D1F02C813D81223031052CF48C819D81AD
:10144000009761F01FC02C813D812230310581F071
:101450008C819D818330910581F014C0EAE3F0E036
:101460008B81808311C0E7E3F0E08B8180830CC027
:10147000E4E3F0E08B81808307C0E1E3F0E08B815F
:10148000808302C081E0898389810F900F900F9043
:101490000F900F90CF91DF910895DF93CF9300D0FD
:1014A00000D00F92CDB7DEB78A836B8319828A8111
:1014B000282F30E03D832C838C819D8181309105E4
:1014C000D1F02C813D81223031052CF48C819D811D
:1014D000009761F01FC02C813D812230310581F0E1
:1014E0008C819D818330910581F014C0EBE3F0E0A5
:1014F0008B81808311C0E8E3F0E08B8180830CC096
:10150000E5E3F0E08B81808307C0E2E3F0E08B81CC
:10151000808302C081E0898389810F900F900F90B2
:101520000F900F90CF91DF910895DF93CF9300D06C
:1015300000D000D0CDB7DEB78A836B834C8319828D
:101540008B81883010F081E089838C81882331F091
:101550008C81813019F081E08983ACC08A81282F89
:1015600030E03E832D836D817E8161307105D1F144
:101570008D819E818230910534F42D813E8121152B
:10158000310571F095C06D817E816230710509F47D
:101590004BC08D819E818330910509F467C088C05E
:1015A000AAE3B0E0EAE3F0E08081482F8B81282FA6
:1015B00030E081E090E002C0880F991F2A95E2F7A1
:1015C000809548238C81282F30E08B81882F90E0F4
:1015D000B90102C0660F771F8A95E2F7CB01842B11
:1015E0008C9368C0A7E3B0E0E7E3F0E08081482F88
:1015F0008B81282F30E081E090E002C0880F991F96
:101600002A95E2F7809548238C81282F30E08B8142
:10161000882F90E0B90102C0660F771F8A95E2F724
:10162000CB01842B8C9346C0A4E3B0E0E4E3F0E06C
:101630008081482F8B81282F30E081E090E002C02C
:10164000880F991F2A95E2F7809548238C81282FCF
:1016500030E08B81882F90E0B90102C0660F771FC0
:101660008A95E2F7CB01842B8C9324C0A1E3B0E0F0
:10167000E1E3F0E08081482F8B81282F30E081E08A
:1016800090E002C0880F991F2A95E2F780954823C1
:101690008C81282F30E08B81882F90E0B90102C027
:1016A000660F771F8A95E2F7CB01842B8C9302C0DB
:1016B00081E08983898126960FB6F894DEBF0FBE3C
:1016C000CDBFCF91DF910895DF93CF9300D000D0AD
:1016D00000D0CDB7DEB78A836B834C8319828B81B0
:1016E000883010F081E089838C81813031F08C81E9
:1016F000882319F081E08983ACC08A81282F30E0EB
:101700003E832D836D817E8161307105D1F18D81A4
:101710009E818230910534F42D813E812115310561
:1017200071F095C06D817E816230710509F44BC006
:101730008D819E818330910509F467C088C0ABE339
:10174000B0E0EBE3F0E08081482F8B81282F30E080
:1017500081E090E002C0880F991F2A95E2F78095FA
:1017600048238C81282F30E08B81882F90E0B901AD
:1017700002C0660F771F8A95E2F7CB01842B8C930A
:1017800068C0A8E3B0E0E8E3F0E08081482F8B81F7
:10179000282F30E081E090E002C0880F991F2A9541
:1017A000E2F7809548238C81282F30E08B81882FA9
:1017B00090E0B90102C0660F771F8A95E2F7CB016E
:1017C000842B8C9346C0A5E3B0E0E5E3F0E0808194
:1017D000482F8B81282F30E081E090E002C0880FF5
:1017E000991F2A95E2F7809548238C81282F30E0B5
:1017F0008B81882F90E0B90102C0660F771F8A9510
:10180000E2F7CB01842B8C9324C0A2E3B0E0E2E3A7
:10181000F0E08081482F8B81282F30E081E090E03C
:1018200002C0880F991F2A95E2F7809548238C8182
:10183000282F30E08B81882F90E0B90102C0660F1D
:10184000771F8A95E2F7CB01842B8C9302C081E04D
:101850008983898126960FB6F894DEBF0FBECDBF6F
:10186000CF91DF910895DF93CF9300D000D000D0C7
:10187000CDB7DEB78A837C836B8319828B819C8191
:10188000009719F481E089833DC08A81282F30E0D8
:101890003E832D838D819E8181309105E1F02D81E4
:1018A0003E81223031052CF48D819E81009761F0BC
:1018B00027C02D813E8122303105A1F08D819E818E
:1018C00083309105B1F01CC0E9E3F0E08081EB8149
:1018D000FC81808317C0E6E3F0E08081EB81FC812E
:1018E000808310C0E3E3F0E08081EB81FC818083A2
:1018F00009C0E0E3F0E08081EB81FC81808302C0DD
:1019000081E08983898126960FB6F894DEBF0FBEE9
:10191000CDBFCF91DF910895DF93CF93CDB7DEB7E1
:1019200027970FB6F894DEBF0FBECDBF8A836B83B7
:101930005D834C8319828C819D81009711F481E035
:1019400089838B81883018F081E0898373C08A8114
:10195000282F30E03F832E834E815F814130510537
:1019600059F18E819F818230910534F42E813F811F
:101970002115310569F05CC04E815F81423051050F
:1019800079F18E819F818330910509F43DC050C06B
:10199000E9E3F0E08081282F30E08B81882F90E010
:1019A000A90102C0559547958A95E2F7CA01817051
:1019B000EC81FD8180833EC0E6E3F0E08081282F4A
:1019C00030E08B81882F90E0A90102C055954795A2
:1019D0008A95E2F7CA018170EC81FD8180832AC07B
:1019E000E3E3F0E08081282F30E08B81882F90E0C6
:1019F000A90102C0559547958A95E2F7CA01817001
:101A0000EC81FD81808316C0E0E3F0E08081282F27
:101A100030E08B81882F90E0A90102C05595479551
:101A20008A95E2F7CA018170EC81FD81808302C052
:101A300081E08983898127960FB6F894DEBF0FBEB7
:101A4000CDBFCF91DF910895DF93CF9300D000D029
:101A50000F92CDB7DEB78A836B8319828B81883072
:101A600018F48A81843018F081E0898371C08A81FA
:101A7000282F30E03D832C838C819D81813091051E
:101A800049F12C813D81223031052CF48C819D81DE
:101A9000009761F05BC02C813D812230310571F1EE
:101AA0008C819D8183309105E9F150C0ABE3B0E0BA
:101AB000EBE3F0E08081482F8B81282F30E081E03C
:101AC00090E0022E02C0880F991F0A94E2F7842743
:101AD0008C933EC0A8E3B0E0E8E3F0E08081482FBB
:101AE0008B81282F30E081E090E0022E02C0880F29
:101AF000991F0A94E2F784278C932AC0A5E3B0E0EB
:101B0000E5E3F0E08081482F8B81282F30E081E0F1
:101B100090E0022E02C0880F991F0A94E2F78427F2
:101B20008C9316C0A2E3B0E0E2E3F0E08081482F9E
:101B30008B81282F30E081E090E0022E02C0880FD8
:101B4000991F0A94E2F784278C9302C081E089836D
:101B500089810F900F900F900F900F90CF91DF9190
:101B60000895DF93CF93CDB7DEB7AFE5B0E0EFE5F3
:101B7000F0E0808180688C93ABE5B0E0EBE5F0E0CD
:101B8000808180648C93A5E5B0E0E5E5F0E080819C
:101B90008E7F8C93A5E5B0E0E5E5F0E08081826082
:101BA0008C93ABE5B0E0EBE5F0E0808180688C934E
:101BB000A5E5B0E0E5E5F0E080818B7F8C93A5E5BD
:101BC000B0E0E5E5F0E0808188608C93CF91DF9113
:101BD0000895DF93CF93CDB7DEB70E94B10D81E0BA
:101BE0006FEF0E94050A83E062E00E94BB0883E079
:101BF00063E00E94BB08809184000E94A305982F97
:101C000081E0692F0E944D0AF6CF1F920F920FB606
:101C10000F9211242F933F934F935F936F937F9372
:101C20008F939F93AF93BF93EF93FF93DF93CF93E4
:101C30000F92CDB7DEB7198283E062E09E012F5F7D
:101C40003F4FA9010E94DE088981882329F48091F1
:101C500084008F5F80938400809184008A3011F427
:101C6000109284000F90CF91DF91FF91EF91BF917F
:101C7000AF919F918F917F916F915F914F913F9124
:101C80002F910F900FBE0F901F9018951F920F92DB
:101C90000FB60F9211242F933F934F935F936F933F
:101CA0007F938F939F93AF93BF93EF93FF93DF93B4
:101CB000CF930F92CDB7DEB7198283E063E09E0128
:101CC0002F5F3F4FA9010E94DE088981882329F4F4
:101CD00080918400815080938400809184008F3FA4
:101CE00019F489E0809384000F90CF91DF91FF91E8
:101CF000EF91BF91AF919F918F917F916F915F9184
:101D00004F913F912F910F900FBE0F901F901895FC
:101D1000991B79E004C0991F961708F0961B881F3D
:101D20007A95C9F7809508952F923F924F925F92CE
:101D30006F927F928F929F92AF92BF92CF92DF92DB
:101D4000EF92FF920F931F93CF93DF93CDB7DEB740
:101D5000CA1BDB0B0FB6F894DEBF0FBECDBF0994D4
:101D60002A88398848885F846E847D848C849B842B
:101D7000AA84B984C884DF80EE80FD800C811B8139
:101D8000AA81B981CE0FD11D0FB6F894DEBF0FBE68
:0A1D9000CDBFED010895F894FFCFD8
:101D9A0000000000000000003F065B4F666D7D07F3
:101DAA007F6F777F393F79713D76300E383F7367A1
:041DBA006D783E6E94
:00000001FF
