:100000000C942A000C9447000C9447000C94470071
:100010000C9447000C9447000C9447000C94470044
:100020000C9447000C9447000C9447000C94470034
:100030000C9447000C9447000C9447000C94470024
:100040000C9447000C9447000C9447000C94470014
:100050000C94470011241FBECFE5D8E0DEBFCDBF12
:1000600010E0A8E6B0E001C01D92A936B107E1F7A3
:1000700010E0A0E6B0E0E0E2FFE102C005900D92E2
:10008000A836B107D9F70E94210E0C948E0F0C945C
:100090000000EF92FF920F931F937B018C0120E0F1
:1000A00030E040E05FE40E94490388238CF0C801FF
:1000B000B70120E030E040E05FE40E94C1010E940F
:1000C000A9039B01AC01205030404040504806C07D
:1000D000C801B7010E94A9039B01AC01B901CA0183
:1000E0001F910F91FF90EF900895A0E0B0E0EBE733
:1000F000F0E00C94570FDC012B01FA019C91923037
:1001000008F439C1EB018881823008F433C194309E
:1001100069F4843009F02FC111969C91119789815F
:10012000981709F428C1A0E6B0E025C1843009F48D
:1001300021C18230A9F4923009F01DC19A01AD01AC
:1001400088E0EA010990AE01E90109929E0181501F
:10015000C1F7E201898111969C918923818308C1AD
:10016000923009F407C112962D903C901397EB0141
:100170008A819B811496AD90BD90CD90DC901797AD
:10018000EC80FD800E811F819101281B390BB90184
:1001900037FF04C066277727621B730B6032710537
:1001A0000CF061C0121613066CF537014801062EDB
:1001B00004C096948794779467940A94D2F721E0C8
:1001C00030E040E050E004C0220F331F441F551FB1
:1001D0006A95D2F721503040404050402E213F21B7
:1001E00040235123211531054105510521F021E01E
:1001F00030E040E050E079018A01E628F72808293C
:1002000019293CC0232BD1F1260E371E350146019A
:10021000062E04C096948794779467940A94D2F734
:1002200021E030E040E050E004C0220F331F441FC3
:10023000551F6A95D2F721503040404050402A2146
:100240003B214C215D21211531054105510521F04E
:1002500021E030E040E050E059016A01A628B728CB
:10026000C828D9280BC0821593052CF01C01AA249C
:10027000BB24650103C0EE24FF24870111969C91E5
:10028000D20111968C91981709F445C0992339F041
:10029000A80197012A193B094C095D0906C0A6016E
:1002A00095012E193F09400B510B57FD08C01182D3
:1002B0003382228224833583468357831DC081E0A5
:1002C00081833382228288279927DC01821B930B4A
:1002D000A40BB50B84839583A683B7830DC0220F2F
:1002E000331F441F551F24833583468357838281E0
:1002F000938101979383828324813581468157813D
:10030000DA01C9010197A109B1098F5F9F4FAF4F72
:10031000BF4328F30BC0918333822282EA0CFB1C7B
:100320000C1D1D1DE482F5820683178383E0808304
:10033000248135814681578157FF1AC0C901AA27F8
:1003400097FDA095BA2F81709070A070B0705695EF
:10035000479537952795822B932BA42BB52B848318
:100360009583A683B7838281938101969383828349
:10037000DF0101C0D201CD01CDB7DEB7E2E10C94BF
:10038000730FA0E2B0E0E7ECF1E00C94630F698337
:100390007A838B839C832D833E834F835887E9E048
:1003A000EE2EF12CEC0EFD1ECE010196B7010E943F
:1003B000D2048E010F5E1F4FCE010596B8010E9438
:1003C000D2048A8991E089278A8BC701B801AE01DE
:1003D000475E5F4F0E9475000E94FD03A096E6E015
:1003E0000C947F0FA0E2B0E0E8EFF1E00C94630F13
:1003F00069837A838B839C832D833E834F835887C5
:10040000F9E0EF2EF12CEC0EFD1ECE010196B701A6
:100410000E94D2048E010F5E1F4FCE010596B801D7
:100420000E94D204C701B801AE01475E5F4F0E942F
:1004300075000E94FD03A096E6E00C947F0FA0E2F9
:10044000B0E0E5E2F2E00C94570F69837A838B8386
:100450009C832D833E834F835887CE010196BE0136
:10046000675F7F4F0E94D204CE010596BE016F5E8A
:100470007F4F0E94D2049985923088F0898982301A
:10048000C8F0943019F4823051F404C0843029F457
:10049000923081F480E690E0C6C0923049F420E0CA
:1004A0009A858A89981321E02A87CE010996BBC0D4
:1004B000823049F420E09A858A89981321E02A8BBA
:1004C000CE014196B0C02D843E844F8458886D88FB
:1004D0007E888F88988CEE24FF248701AA24BB2471
:1004E000650140E050E060E070E0E0E0F0E0C10174
:1004F00081709070892BE9F0E60CF71C081D191D1E
:100500009A01AB012A0D3B1D4C1D5D1D80E090E062
:10051000A0E0B0E0E614F7040805190520F481E036
:1005200090E0A0E0B0E0BA01A901480F591F6A1F8E
:100530007B1FAA0CBB1CCC1CDD1C97FE08C081E0F5
:1005400090E0A0E0B0E0A82AB92ACA2ADB2A3196B6
:10055000E032F10549F0660C771C881C991C569412
:10056000479437942794C3CFFA85EA892B893C892D
:100570008B859C85280F391F2E5F3F4F17C0CA01FE
:1005800081709070892B61F016950795F794E79428
:1005900080E090E0A0E0B0E8E82AF92A0A2B1B2BC3
:1005A00076956795579547952F5F3F4F77FDE7CF36
:1005B0000CC0440F551F661F771F17FD4160EE0CDE
:1005C000FF1C001F111F21503040403090E05907A0
:1005D00090E0690790E4790760F32B8F3C8FDB0193
:1005E000CA018F779070A070B07080349105A1051A
:1005F000B10561F447FD0AC0E114F10401051105DC
:1006000029F0405C5F4F6F4F7F4F40781A8EFE1786
:1006100011F081E08A8F4D8F5E8F6F8F78A383E01A
:10062000898FCE0149960E94FD03A096E2E10C94C9
:10063000730FA8E1B0E0EFE1F3E00C94630F69837E
:100640007A838B839C832D833E834F83588789E0F5
:10065000E82EF12CEC0EFD1ECE010196B7010E9492
:10066000D2048E010F5E1F4FCE010596B8010E9485
:10067000D2048985823040F08989823028F0C70110
:10068000B8010E944A0501C08FEF6896E6E00C941D
:100690007F0FA8E1B0E0EFE4F3E00C94630F69830F
:1006A0007A838B839C832D833E834F83588789E095
:1006B000E82EF12CEC0EFD1ECE010196B7010E9432
:1006C000D2048E010F5E1F4FCE010596B8010E9425
:1006D000D2048985823040F08989823028F0C701B0
:1006E000B8010E944A0501C08FEF6896E6E00C94BD
:1006F0007F0FA8E1B0E0EFE7F3E00C94630F6983AC
:100700007A838B839C832D833E834F83588789E034
:10071000E82EF12CEC0EFD1ECE010196B7010E94D1
:10072000D2048E010F5E1F4FCE010596B8010E94C4
:10073000D2048985823040F08989823028F0C7014F
:10074000B8010E944A0501C081E06896E6E00C9479
:100750007F0FACE0B0E0EFEAF3E00C94670F698341
:100760007A838B839C83CE010196BE016B5F7F4FA2
:100770000E94D2048D81823061F1823050F1843048
:1007800021F48E81882351F12EC02F81388537FDC9
:1007900020C06E812F3131051CF06623F9F023C093
:1007A0008EE190E0821B930B29853A854B855C8511
:1007B00004C056954795379527958A95D2F76623B5
:1007C000B1F050954095309521953F4F4F4F5F4F79
:1007D0000EC020E030E040E050E009C02FEF3FEFD6
:1007E0004FEF5FE704C020E030E040E050E8B9019F
:1007F000CA012C96E2E00C94830FDF92EF92FF92F5
:100800000F931F93FC01E480F58006811781D1804E
:100810008081823048F480E090E0A0E1B0E0E82AF6
:10082000F92A0A2B1B2BA5C0843009F49FC0823003
:1008300021F4EE24FF24870105C0E114F104010531
:10084000110519F4E0E0F0E096C0628173819FEF3A
:10085000623879070CF05BC022E83FEF261B370BAC
:100860002A3131052CF020E030E040E050E02AC091
:10087000B801A701022E04C0769567955795479554
:100880000A94D2F781E090E0A0E0B0E004C0880FC5
:10089000991FAA1FBB1F2A95D2F70197A109B10979
:1008A0008E219F21A023B1230097A105B10521F03E
:1008B00081E090E0A0E0B0E09A01AB01282B392B59
:1008C0004A2B5B2BDA01C9018F779070A070B07052
:1008D00080349105A105B10539F427FF09C0205CDA
:1008E0003F4F4F4F5F4F04C0215C3F4F4F4F5F4F13
:1008F000E0E0F0E02030A0E03A07A0E04A07A0E402
:100900005A0710F0E1E0F0E079018A0127C0603871
:10091000710564F5FB01E158FF4FD801C7018F77DE
:100920009070A070B07080349105A105B10539F4C4
:10093000E7FE0DC080E490E0A0E0B0E004C08FE3EB
:1009400090E0A0E0B0E0E80EF91E0A1F1B1F17FFA1
:1009500005C016950795F794E794319687E01695AC
:100960000795F794E7948A95D1F705C0EE24FF2404
:100970008701EFEFF0E06E2F679566276795902F60
:100980009F77D794DD24D7948E2F8695492F462BB9
:10099000582F5D29B701CA011F910F91FF90EF9069
:1009A000DF900895FC01DB01408151812281622F9B
:1009B0006F7770E0221F2227221F9381892F880FD3
:1009C000822B282F30E0991F9927991F11969C930D
:1009D000119721153105A9F54115510561057105DD
:1009E00011F482E037C082E89FEF13969C938E93B8
:1009F00012979A01AB0167E0220F331F441F551F66
:100A00006A95D1F783E08C930DC0220F331F441FEA
:100A1000551F12968D919C911397019713969C9355
:100A20008E931297203080E0380780E0480780E4FA
:100A3000580758F314962D933D934D935C93179755
:100A400008952F3F310579F4411551056105710570
:100A500019F484E08C93089564FF03C081E08C93C3
:100A600012C01C9210C02F57304013963C932E9307
:100A7000129783E08C9387E0440F551F661F771F02
:100A80008A95D1F7706414964D935D936D937C9322
:100A9000179708951F93DC01FB019C91923008F495
:100AA00047C08081823008F443C0943051F41196DD
:100AB0001C91843099F58181682F70E0611B710968
:100AC0003FC0843021F0923031F48230B9F181811D
:100AD000882389F12DC011961C9111978230F1F075
:100AE00081811817D9F412962D913C911397828128
:100AF00093818217930794F028173907BCF0149656
:100B00008D919D910D90BC91A02D248135814681C0
:100B10005781281739074A075B0718F4112341F05A
:100B20000AC082179307A407B50740F4112319F0F0
:100B300061E070E005C06FEF7FEF02C060E070E041
:100B4000CB011F910895DF93CF93CDB7DEB7A7E216
:100B5000B0E0E7E2F0E0808180648C93A6E2B0E050
:100B6000E6E2F0E0808185688C93CF91DF91089573
:100B7000DF93CF930F92CDB7DEB78983A7E2B0E0C2
:100B8000E7E2F0E08081807E8C93A7E2B0E0E7E2CC
:100B9000F0E090818981892B8C93A6E2B0E0E6E2B7
:100BA000F0E0808180648C93E6E2F0E08081882F21
:100BB00090E0807190700097B9F3A6E2B0E0E6E2B1
:100BC000F0E0808180618C93E4E2F0E080819181AB
:100BD0000F90CF91DF910895DF93CF9300D000D095
:100BE0000F92CDB7DEB789836A834B838981282F23
:100BF00030E03D832C838C819D818130910509F407
:100C000046C02C813D81223031052CF48C819D81A0
:100C1000009771F0C7C02C813D812230310509F465
:100C200065C08C819D818330910509F48EC0BAC066
:100C30008B818823A1F4AAE3B0E0EAE3F0E08081AD
:100C4000482F8A81282F30E081E090E0022E02C0F8
:100C5000880F991F0A94E2F7809584238C938B81E7
:100C6000813009F09FC0AAE3B0E0EAE3F0E08081C0
:100C7000482F8A81282F30E081E090E0022E02C0C8
:100C8000880F991F0A94E2F7842B8C938BC08B8179
:100C90008823A1F4A7E3B0E0E7E3F0E08081482FE8
:100CA0008A81282F30E081E090E0022E02C0880F78
:100CB000991F0A94E2F7809584238C938B8181306D
:100CC00009F070C0A7E3B0E0E7E3F0E08081482FCF
:100CD0008A81282F30E081E090E0022E02C0880F48
:100CE000991F0A94E2F7842B8C935CC08B81882334
:100CF000A1F4A4E3B0E0E4E3F0E08081482F8A812E
:100D0000282F30E081E090E0022E02C0880F991F6A
:100D10000A94E2F7809584238C938B81813009F0CB
:100D200041C0A4E3B0E0E4E3F0E08081482F8A8191
:100D3000282F30E081E090E0022E02C0880F991F3A
:100D40000A94E2F7842B8C932DC08B818823A1F425
:100D5000A1E3B0E0E1E3F0E08081482F8A81282F11
:100D600030E081E090E0022E02C0880F991F0A94C3
:100D7000E2F7809584238C938B81813099F4A1E3F1
:100D8000B0E0E1E3F0E08081482F8A81282F30E055
:100D900081E090E0022E02C0880F991F0A94E2F7CA
:100DA000842B8C930F900F900F900F900F90CF91FA
:100DB000DF910895DF93CF9300D000D00F92CDB78D
:100DC000DEB789836A834B838981282F30E03D8396
:100DD0002C838C819D818130910509F446C02C8142
:100DE0003D81223031052CF48C819D81009771F07A
:100DF000C7C02C813D812230310509F465C08C814A
:100E00009D818330910509F48EC0BAC08B818823FF
:100E1000A1F4ABE3B0E0EBE3F0E08081482F8A81FE
:100E2000282F30E081E090E0022E02C0880F991F49
:100E30000A94E2F7809584238C938B81813009F0AA
:100E40009FC0ABE3B0E0EBE3F0E08081482F8A8104
:100E5000282F30E081E090E0022E02C0880F991F19
:100E60000A94E2F7842B8C938BC08B818823A1F4A6
:100E7000A8E3B0E0E8E3F0E08081482F8A81282FE2
:100E800030E081E090E0022E02C0880F991F0A94A2
:100E9000E2F7809584238C938B81813009F070C0B8
:100EA000A8E3B0E0E8E3F0E08081482F8A81282FB2
:100EB00030E081E090E0022E02C0880F991F0A9472
:100EC000E2F7842B8C935CC08B818823A1F4A5E38B
:100ED000B0E0E5E3F0E08081482F8A81282F30E000
:100EE00081E090E0022E02C0880F991F0A94E2F779
:100EF000809584238C938B81813009F041C0A5E3D8
:100F0000B0E0E5E3F0E08081482F8A81282F30E0CF
:100F100081E090E0022E02C0880F991F0A94E2F748
:100F2000842B8C932DC08B818823A1F4A2E3B0E0A5
:100F3000E2E3F0E08081482F8A81282F30E081E0D1
:100F400090E0022E02C0880F991F0A94E2F7809564
:100F500084238C938B81813099F4A2E3B0E0E2E3A7
:100F6000F0E08081482F8A81282F30E081E090E0F6
:100F7000022E02C0880F991F0A94E2F7842B8C93EB
:100F80000F900F900F900F900F90CF91DF910895D9
:100F9000DF93CF9300D000D00F92CDB7DEB7898317
:100FA0006A838981282F30E03D832C834C815D81C9
:100FB00041305105B1F18C819D818230910534F42D
:100FC0002C813D812115310571F085C04C815D81F9
:100FD0004230510509F443C08C819D8183309105D5
:100FE00009F45BC078C0E9E3F0E08081482F50E06D
:100FF0008A81282F30E081E090E002C0880F991F9D
:101000002A95E2F79A01282339238A81882F90E0D4
:10101000A90102C0559547958A95E2F7CA018B83CD
:101020005CC0E6E3F0E08081482F50E08A81282F01
:1010300030E081E090E002C0880F991F2A95E2F726
:101040009A01282339238A81882F90E0A90102C0C0
:10105000559547958A95E2F7CA018B833EC0E3E335
:10106000F0E08081482F50E08A81282F30E081E035
:1010700090E002C0880F991F2A95E2F79A01282371
:1010800039238A81882F90E0A90102C055954795A0
:101090008A95E2F7CA018B8320C0E0E3F0E080810B
:1010A000482F50E08A81282F30E081E090E002C094
:1010B000880F991F2A95E2F79A01282339238A81FC
:1010C000882F90E0A90102C0559547958A95E2F7CF
:1010D000CA018B8302C052E05B838B810F900F901B
:1010E0000F900F900F90CF91DF910895DF93CF93E2
:1010F00000D000D0CDB7DEB789836A838981282FDD
:1011000030E03C832B838B819C8181309105D1F031
:101110002B813C81223031052CF48B819C810097FE
:1011200061F01EC02B813C812230310581F08B8122
:101130009C818330910581F013C0EAE3F0E08A815D
:1011400080830EC0E7E3F0E08A81808309C0E4E396
:10115000F0E08A81808304C0E1E3F0E08A8180834B
:101160000F900F900F900F90CF91DF910895DF9324
:10117000CF9300D000D0CDB7DEB789836A83898151
:10118000282F30E03C832B838B819C81813091051B
:10119000D1F02B813C81223031052CF48B819C8154
:1011A000009761F01EC02B813C812230310581F017
:1011B0008B819C818330910581F013C0EBE3F0E0DB
:1011C0008A8180830EC0E8E3F0E08A81808309C0D1
:1011D000E5E3F0E08A81808304C0E2E3F0E08A8105
:1011E00080830F900F900F900F90CF91DF91089513
:1011F000DF93CF93CDB7DEB72F970FB6F894DEBF4E
:101200000FBECDBF8F8782E061E040E00E94DA062A
:1012100082E060E040E00E94DA0681E06F850E9493
:10122000B70882E062E041E00E94DA0680E090E0E8
:10123000A0E0B0E48B879C87AD87BE876B857C85FB
:101240008D859E8520E030E04AEF54E40E941F0225
:10125000DC01CB018F839887A987BA876F81788556
:1012600089859A8520E030E040E85FE30E947903B9
:1012700088232CF481E090E09E838D833FC06F81B2
:10128000788589859A8520E03FEF4FE757E40E94F3
:10129000190318164CF56B857C858D859E8520E09D
:1012A00030E040E251E40E941F02DC01CB01BC01AE
:1012B000CD010E944900DC01CB019E838D830FC0CC
:1012C00088EC90E09C838B838B819C810197F1F764
:1012D0009C838B838D819E8101979E838D838D81DD
:1012E0009E81009769F714C06F81788589859A85FA
:1012F0000E944900DC01CB019E838D838D819E81FC
:101300009A83898389819A810197F1F79A838983E6
:1013100082E062E040E00E94DA062F960FB6F89471
:10132000DEBF0FBECDBFCF91DF910895DF93CF9386
:10133000CDB7DEB72F970FB6F894DEBF0FBECDBF87
:101340008F8782E061E040E00E94DA0682E060E0A0
:1013500041E00E94DA0681E06F850E94B70882E0D2
:1013600062E041E00E94DA0680E090E0A0E0B0E4B4
:101370008B879C87AD87BE876B857C858D859E8599
:1013800020E030E04AEF54E40E941F02DC01CB0170
:101390008F839887A987BA876F81788589859A8591
:1013A00020E030E040E85FE30E94790388232CF4DA
:1013B00081E090E09E838D833FC06F817885898531
:1013C0009A8520E03FEF4FE757E40E941903181673
:1013D0004CF56B857C858D859E8520E030E040E274
:1013E00051E40E941F02DC01CB01BC01CD010E942F
:1013F0004900DC01CB019E838D830FC088EC90E017
:101400009C838B838B819C810197F1F79C838B83D9
:101410008D819E8101979E838D838D819E81009712
:1014200069F714C06F81788589859A850E94490083
:10143000DC01CB019E838D838D819E819A8389837C
:1014400089819A810197F1F79A83898382E062E02A
:1014500040E00E94DA062F960FB6F894DEBF0FBE6A
:10146000CDBFCF91DF910895DF93CF93CDB7DEB796
:10147000E8970FB6F894DEBF0FBECDBF82E060E004
:1014800041E00E94EC0582E061E041E00E94EC0551
:1014900082E062E041E00E94EC0581E06FEF0E9493
:1014A000760880E090E0A8E4B2E48DAB9EABAFABF1
:1014B000B8AF6DA97EA98FA998AD20E030E04AEFC2
:1014C00054E40E941F02DC01CB0189AB9AABABABA9
:1014D000BCAB69A97AA98BA99CA920E030E040E8BF
:1014E0005FE30E94790388232CF481E090E098ABBD
:1014F0008FA73FC069A97AA98BA99CA920E03FEFDB
:101500004FE757E40E94190318164CF56DA97EA900
:101510008FA998AD20E030E040E251E40E941F0224
:10152000DC01CB01BC01CD010E944900DC01CB01F3
:1015300098AB8FA70FC088EC90E09EA78DA78DA5D4
:101540009EA50197F1F79EA78DA78FA598A9019752
:1015500098AB8FA78FA598A9009769F714C069A9C0
:101560007AA98BA99CA90E944900DC01CB0198AB08
:101570008FA78FA598A99CA78BA78BA59CA5019742
:10158000F1F79CA78BA78CE30E94F80880E090E01D
:10159000A0E8BFE38FA398A7A9A7BAA76FA178A5D2
:1015A00089A59AA520E030E04AEF54E40E941F028A
:1015B000DC01CB018BA39CA3ADA3BEA36BA17CA13B
:1015C0008DA19EA120E030E040E85FE30E94790316
:1015D00088232CF481E090E09AA389A33FC06BA1FB
:1015E0007CA18DA19EA120E03FEF4FE757E40E9430
:1015F000190318164CF56FA178A589A59AA520E0C6
:1016000030E040E251E40E941F02DC01CB01BC014A
:10161000CD010E944900DC01CB019AA389A30FC030
:1016200088EC90E098A38F8F8F8D98A10197F1F7A8
:1016300098A38F8F89A19AA101979AA389A389A1C1
:101640009AA1009769F714C06BA17CA18DA19EA1FE
:101650000E944900DC01CB019AA389A389A19AA128
:101660009E8F8D8F8D8D9E8D0197F1F79E8F8D8F23
:101670008CE00E94F80880E090E0A0E8BFE3898F4A
:101680009A8FAB8FBC8F698D7A8D8B8D9C8D20E06E
:1016900030E04AEF54E40E941F02DC01CB018D8B45
:1016A0009E8BAF8BB88F6D897E898F89988D20E056
:1016B00030E040E85FE30E94790388232CF481E066
:1016C00090E09C8B8B8B3FC06D897E898F89988D34
:1016D00020E03FEF4FE757E40E94190318164CF53E
:1016E000698D7A8D8B8D9C8D20E030E040E251E455
:1016F0000E941F02DC01CB01BC01CD010E94490008
:10170000DC01CB019C8B8B8B0FC088EC90E09A8B1B
:10171000898B89899A890197F1F79A8B898B8B89B3
:101720009C8901979C8B8B8B8B899C89009769F78F
:1017300014C06D897E898F89988D0E944900DC01D3
:10174000CB019C8B8B8B8B899C89988B8F878F850A
:1017500098890197F1F7988B8F8781E00E94F808AC
:1017600080E090E0A0E0B0E48B879C87AD87BE87E7
:101770006B857C858D859E8520E030E04AEF54E4C2
:101780000E941F02DC01CB018F839887A987BA874B
:101790006F81788589859A8520E030E040E85FE3B5
:1017A0000E94790388232CF481E090E09E838D834E
:1017B0003FC06F81788589859A8520E03FEF4FE7AC
:1017C00057E40E94190318164CF56B857C858D85AE
:1017D0009E8520E030E040E251E40E941F02DC01DF
:1017E000CB01BC01CD010E944900DC01CB019E83ED
:1017F0008D830FC088EC90E09C838B838B819C81D0
:101800000197F1F79C838B838D819E8101979E8345
:101810008D838D819E81009769F714C06F817885D3
:1018200089859A850E944900DC01CB019E838D83C6
:101830008D819E819A83898389819A810197F1F7AD
:101840009A838983E8960FB6F894DEBF0FBECDBFAA
:10185000CF91DF910895DF93CF9300D000D0CDB723
:10186000DEB789836A838A818823E1F08A818131A6
:10187000C8F48981282F30E03C832B838B819C81A5
:101880008130910531F02B813C812230310531F0DE
:1018900009C08A8181580E94F80804C08A81815455
:1018A0000E94F8080F900F900F900F90CF91DF914A
:1018B0000895DF93CF93CDB7DEB764970FB6F89452
:1018C000DEBF0FBECDBF698B7A8B8B8B9C8B8989DA
:1018D0009A89AB89BC898A309105A105B10520F4AC
:1018E0008989805D0E94960989899A89AB89BC891A
:1018F0008A309105A105B105A8F189899A89AB893A
:10190000BC8984369105A105B10560F589899A895C
:10191000AB89BC892AE030E040E050E0BC01CD0159
:101920000E94350FDA01C9018D879E87AF87B88B7A
:1019300089899A89AB89BC892AE030E040E050E08F
:10194000BC01CD010E94350FDC01CB0189879A874C
:10195000AB87BC878D85805D0E9496098985805DF7
:101960000E94960989899A89AB89BC898436910538
:10197000A105B10508F461C089899A89AB89BC8940
:10198000883E23E0920720E0A20720E0B20708F09B
:1019900054C089899A89AB89BC892AE030E040E04B
:1019A00050E0BC01CD010E94350FDA01C9018D87DD
:1019B0009E87AF87B88B8D859E85AF85B8892AE0D5
:1019C00030E040E050E0BC01CD010E94350FDC0169
:1019D000CB0189879A87AB87BC8789859A85AB8538
:1019E000BC852AE030E040E050E0BC01CD010E941F
:1019F000350FDA01C9018D839E83AF83B88789854E
:101A00009A85AB85BC852AE030E040E050E0BC011F
:101A1000CD010E94350FDC01CB0189839A83AB8312
:101A2000BC838D85805D0E9496098D81805D0E94BA
:101A300096098981805D0E94960964960FB6F89494
:101A4000DEBF0FBECDBFCF91DF910895DF93CF935F
:101A500000D000D0CDB7DEB789836A838981282F73
:101A600030E03C832B838B819C8181309105D9F0C0
:101A70002B813C81223031052CF48B819C81009795
:101A800061F022C02B813C812230310591F08B81A5
:101A90009C818330910599F017C080E06A8141E014
:101AA0000E94EC0511C081E06A8141E00E94EC05D2
:101AB0000BC082E06A8141E00E94EC0505C083E032
:101AC0006A8141E00E94EC050F900F900F900F90FB
:101AD000CF91DF910895DF93CF9300D000D0CDB7A1
:101AE000DEB789836A838981282F30E03C832B838A
:101AF0008B819C8181309105D9F02B813C812230F2
:101B000031052CF48B819C81009761F022C02B81E0
:101B10003C812230310591F08B819C81833091058D
:101B200099F017C080E06A8141E00E94DA0611C096
:101B300081E06A8141E00E94DA060BC082E06A819E
:101B400041E00E94DA0605C083E06A8141E00E941C
:101B5000DA060F900F900F900F90CF91DF910895BC
:101B6000DF93CF9300D000D0CDB7DEB789836A83EF
:101B70008981282F30E03C832B838B819C818130AD
:101B80009105D9F02B813C81223031052CF48B81D9
:101B90009C81009761F022C02B813C81223031056D
:101BA00091F08B819C818330910599F017C080E082
:101BB0006A8140E00E94DA0611C081E06A8140E05B
:101BC0000E94DA060BC082E06A8140E00E94DA06D9
:101BD00005C083E06A8140E00E94DA060F900F9012
:101BE0000F900F90CF91DF910895DF93CF93CDB7F2
:101BF000DEB7AFE4B0E0EFE4F0E0808182688C9380
:101C0000AEE4B0E0EEE4F0E080818C618C93E6E439
:101C1000F0E081E78083CF91DF910895DF93CF9348
:101C2000CDB7DEB7AFE4B0E0EFE4F0E080818C93B5
:101C3000AEE4B0E0EEE4F0E080818C93CF91DF91F0
:101C40000895DF93CF9300D000D000D0CDB7DEB79A
:101C50000E94A3050E94340A81E00E94B8059C837B
:101C60008B832B813C81C901880F991F880F991F95
:101C7000820F931F2FEF33E0B9010E94210FCB0198
:101C80009A83898382E061E00E942B0C82E40E94A7
:101C9000960982E70E94960989E60E94960987E6DE
:101CA0000E94960988E60E94960984E70E94960998
:101CB0008EE60E94960985E60E94960983E70E94B7
:101CC000960983E70E9496098AE30E94960980E2BA
:101CD0000E94960989819A81CC01A0E0B0E0BC0104
:101CE000CD010E94590C83E065E041E00E94EC05C3
:101CF00089819A819E838D838D819E818230910519
:101D0000B1F18D819E818330910550F48D819E814A
:101D1000009789F08D819E8181309105D1F09CCF13
:101D20008D819E818330910559F18D819E81843012
:101D3000910591F191CF0E94F50DEAE4F0E084E67F
:101D400090E09183808383E065E041E00E94DA06C1
:101D500083CF0E94F50DEAE4F0E08AE090E0918301
:101D6000808383E065E041E00E94DA0675CF0E943F
:101D7000F50DEAE4F0E08AE090E0918380836CCF97
:101D8000EAE4F0E0118210820E940E0E83E065E02A
:101D900040E00E94DA0660CF0E940E0E83E065E00C
:101DA00040E00E94DA0658CFDF93CF93CDB7DEB77D
:101DB000E3E5F0E08DE68083ECE5F0E08FEF8083F3
:101DC00081E063E041E00E94EC05CF91DF9108954E
:101DD000DF93CF93CDB7DEB7E3E5F0E08DE6808308
:101DE000ECE5F0E08FEF808381E063E041E00E946A
:101DF000EC05CF91DF910895DF93CF93CDB7DEB798
:101E000081E063E041E00E94EC0581E063E040E0B6
:101E10000E94DA06CF91DF910895DF93CF93CDB77B
:101E2000DEB7E3E5F0E08DE68083ECE5F0E084E604
:101E3000808381E063E041E00E94EC05CF91DF9177
:101E40000895AA1BBB1B51E107C0AA1FBB1FA61701
:101E5000B70710F0A61BB70B881F991F5A95A9F753
:101E600080959095BC01CD010895A1E21A2EAA1B80
:101E7000BB1BFD010DC0AA1FBB1FEE1FFF1FA2173A
:101E8000B307E407F50720F0A21BB30BE40BF50B37
:101E9000661F771F881F991F1A9469F760957095C0
:101EA000809590959B01AC01BD01CF0108952F92C3
:101EB0003F924F925F926F927F928F929F92AF92DA
:101EC000BF92CF92DF92EF92FF920F931F93CF9327
:101ED000DF93CDB7DEB7CA1BDB0B0FB6F894DEBFBE
:101EE0000FBECDBF09942A88398848885F846E84E4
:101EF0007D848C849B84AA84B984C884DF80EE802E
:101F0000FD800C811B81AA81B981CE0FD11D0FB636
:101F1000F894DEBF0FBECDBFED010895F894FFCF5A
:081F20000000000000000000B9
:00000001FF
