:100000000C942A000C943F000C943F000C943F0089
:100010000C943F000C943F000C943F000C943F0064
:100020000C943F000C943F000C943F000C943F0054
:100030000C943F000C943F000C943F000C943F0044
:100040000C943F000C943F000C943F000C943F0034
:100050000C943F0011241FBECFE5D8E0DEBFCDBF1A
:1000600010E0A0E6B0E0E0E2FAE102C005900D92F7
:10007000A438B107D9F70E94C50B0C940E0D0C944F
:100080000000EF92FF920F931F937B018C0120E001
:1000900030E040E05FE40E94410388238CF0C80117
:1000A000B70120E030E040E05FE40E94B9010E9427
:1000B000A1039B01AC01205030404040504806C095
:1000C000C801B7010E94A1039B01AC01B901CA019B
:1000D0001F910F91FF90EF900895A0E0B0E0E3E74B
:1000E000F0E00C94D70CDC012B01FA019C919230CA
:1000F00008F439C1EB018881823008F433C19430AF
:1001000069F4843009F02FC111969C91119789816F
:10011000981709F428C1A0E6B0E025C1843009F49D
:1001200021C18230A9F4923009F01DC19A01AD01BC
:1001300088E0EA010990AE01E90109929E0181502F
:10014000C1F7E201898111969C918923818308C1BD
:10015000923009F407C112962D903C901397EB0151
:100160008A819B811496AD90BD90CD90DC901797BD
:10017000EC80FD800E811F819101281B390BB90194
:1001800037FF04C066277727621B730B6032710547
:100190000CF061C0121613066CF537014801062EEB
:1001A00004C096948794779467940A94D2F721E0D8
:1001B00030E040E050E004C0220F331F441F551FC1
:1001C0006A95D2F721503040404050402E213F21C7
:1001D00040235123211531054105510521F021E02E
:1001E00030E040E050E079018A01E628F72808294C
:1001F00019293CC0232BD1F1260E371E35014601AB
:10020000062E04C096948794779467940A94D2F744
:1002100021E030E040E050E004C0220F331F441FD3
:10022000551F6A95D2F721503040404050402A2156
:100230003B214C215D21211531054105510521F05E
:1002400021E030E040E050E059016A01A628B728DB
:10025000C828D9280BC0821593052CF01C01AA24AC
:10026000BB24650103C0EE24FF24870111969C91F5
:10027000D20111968C91981709F445C0992339F051
:10028000A80197012A193B094C095D0906C0A6017E
:1002900095012E193F09400B510B57FD08C01182E3
:1002A0003382228224833583468357831DC081E0B5
:1002B00081833382228288279927DC01821B930B5A
:1002C000A40BB50B84839583A683B7830DC0220F3F
:1002D000331F441F551F24833583468357838281F0
:1002E000938101979383828324813581468157814D
:1002F000DA01C9010197A109B1098F5F9F4FAF4F83
:10030000BF4328F30BC0918333822282EA0CFB1C8B
:100310000C1D1D1DE482F5820683178383E0808314
:10032000248135814681578157FF1AC0C901AA2708
:1003300097FDA095BA2F81709070A070B0705695FF
:10034000479537952795822B932BA42BB52B848328
:100350009583A683B7838281938101969383828359
:10036000DF0101C0D201CD01CDB7DEB7E2E10C94CF
:10037000F30CA0E2B0E0EFEBF1E00C94E30C698346
:100380007A838B839C832D833E834F835887E9E058
:10039000EE2EF12CEC0EFD1ECE010196B7010E944F
:1003A000CA048E010F5E1F4FCE010596B8010E9450
:1003B000CA048A8991E089278A8BC701B801AE01F6
:1003C000475E5F4F0E946D000E94F503A096E6E035
:1003D0000C94FF0CA0E2B0E0E0EFF1E00C94E30C31
:1003E00069837A838B839C832D833E834F835887D5
:1003F000F9E0EF2EF12CEC0EFD1ECE010196B701B7
:100400000E94CA048E010F5E1F4FCE010596B801EF
:100410000E94CA04C701B801AE01475E5F4F0E9447
:100420006D000E94F503A096E6E00C94FF0CA0E29C
:10043000B0E0EDE1F2E00C94D70C69837A838B8312
:100440009C832D833E834F835887CE010196BE0146
:10045000675F7F4F0E94CA04CE010596BE016F5EA2
:100460007F4F0E94CA049985923088F08989823032
:10047000C8F0943019F4823051F404C0843029F467
:10048000923081F480E690E0C6C0923049F420E0DA
:100490009A858A89981321E02A87CE010996BBC0E4
:1004A000823049F420E09A858A89981321E02A8BCA
:1004B000CE014196B0C02D843E844F8458886D880B
:1004C0007E888F88988CEE24FF248701AA24BB2481
:1004D000650140E050E060E070E0E0E0F0E0C10184
:1004E00081709070892BE9F0E60CF71C081D191D2E
:1004F0009A01AB012A0D3B1D4C1D5D1D80E090E073
:10050000A0E0B0E0E614F7040805190520F481E046
:1005100090E0A0E0B0E0BA01A901480F591F6A1F9E
:100520007B1FAA0CBB1CCC1CDD1C97FE08C081E005
:1005300090E0A0E0B0E0A82AB92ACA2ADB2A3196C6
:10054000E032F10549F0660C771C881C991C569422
:10055000479437942794C3CFFA85EA892B893C893D
:100560008B859C85280F391F2E5F3F4F17C0CA010E
:1005700081709070892B61F016950795F794E79438
:1005800080E090E0A0E0B0E8E82AF92A0A2B1B2BD3
:1005900076956795579547952F5F3F4F77FDE7CF46
:1005A0000CC0440F551F661F771F17FD4160EE0CEE
:1005B000FF1C001F111F21503040403090E05907B0
:1005C00090E0690790E4790760F32B8F3C8FDB01A3
:1005D000CA018F779070A070B07080349105A1052A
:1005E000B10561F447FD0AC0E114F10401051105EC
:1005F00029F0405C5F4F6F4F7F4F40781A8EFE1797
:1006000011F081E08A8F4D8F5E8F6F8F78A383E02A
:10061000898FCE0149960E94F503A096E2E10C94E1
:10062000F30CA8E1B0E0E7E1F3E00C94E30C69839C
:100630007A838B839C832D833E834F83588789E005
:10064000E82EF12CEC0EFD1ECE010196B7010E94A2
:10065000CA048E010F5E1F4FCE010596B8010E949D
:10066000CA048985823040F08989823028F0C70128
:10067000B8010E94420501C08FEF6896E6E00C9435
:10068000FF0CA8E1B0E0E7E4F3E00C94E30C69832D
:100690007A838B839C832D833E834F83588789E0A5
:1006A000E82EF12CEC0EFD1ECE010196B7010E9442
:1006B000CA048E010F5E1F4FCE010596B8010E943D
:1006C000CA048985823040F08989823028F0C701C8
:1006D000B8010E94420501C08FEF6896E6E00C94D5
:1006E000FF0CA8E1B0E0E7E7F3E00C94E30C6983CA
:1006F0007A838B839C832D833E834F83588789E045
:10070000E82EF12CEC0EFD1ECE010196B7010E94E1
:10071000CA048E010F5E1F4FCE010596B8010E94DC
:10072000CA048985823040F08989823028F0C70167
:10073000B8010E94420501C081E06896E6E00C9491
:10074000FF0CACE0B0E0E7EAF3E00C94E70C69835F
:100750007A838B839C83CE010196BE016B5F7F4FB2
:100760000E94CA048D81823061F1823050F1843060
:1007700021F48E81882351F12EC02F81388537FDD9
:1007800020C06E812F3131051CF06623F9F023C0A3
:100790008EE190E0821B930B29853A854B855C8521
:1007A00004C056954795379527958A95D2F76623C5
:1007B000B1F050954095309521953F4F4F4F5F4F89
:1007C0000EC020E030E040E050E009C02FEF3FEFE6
:1007D0004FEF5FE704C020E030E040E050E8B901AF
:1007E000CA012C96E2E00C94030DDF92EF92FF9287
:1007F0000F931F93FC01E480F58006811781D1805F
:100800008081823048F480E090E0A0E1B0E0E82A06
:10081000F92A0A2B1B2BA5C0843009F49FC0823013
:1008200021F4EE24FF24870105C0E114F104010541
:10083000110519F4E0E0F0E096C0628173819FEF4A
:10084000623879070CF05BC022E83FEF261B370BBC
:100850002A3131052CF020E030E040E050E02AC0A1
:10086000B801A701022E04C0769567955795479564
:100870000A94D2F781E090E0A0E0B0E004C0880FD5
:10088000991FAA1FBB1F2A95D2F70197A109B10989
:100890008E219F21A023B1230097A105B10521F04E
:1008A00081E090E0A0E0B0E09A01AB01282B392B69
:1008B0004A2B5B2BDA01C9018F779070A070B07062
:1008C00080349105A105B10539F427FF09C0205CEA
:1008D0003F4F4F4F5F4F04C0215C3F4F4F4F5F4F23
:1008E000E0E0F0E02030A0E03A07A0E04A07A0E412
:1008F0005A0710F0E1E0F0E079018A0127C0603882
:10090000710564F5FB01E158FF4FD801C7018F77EE
:100910009070A070B07080349105A105B10539F4D4
:10092000E7FE0DC080E490E0A0E0B0E004C08FE3FB
:1009300090E0A0E0B0E0E80EF91E0A1F1B1F17FFB1
:1009400005C016950795F794E794319687E01695BC
:100950000795F794E7948A95D1F705C0EE24FF2414
:100960008701EFEFF0E06E2F679566276795902F70
:100970009F77D794DD24D7948E2F8695492F462BC9
:10098000582F5D29B701CA011F910F91FF90EF9079
:10099000DF900895FC01DB01408151812281622FAB
:1009A0006F7770E0221F2227221F9381892F880FE3
:1009B000822B282F30E0991F9927991F11969C931D
:1009C000119721153105A9F54115510561057105ED
:1009D00011F482E037C082E89FEF13969C938E93C8
:1009E00012979A01AB0167E0220F331F441F551F76
:1009F0006A95D1F783E08C930DC0220F331F441FFB
:100A0000551F12968D919C911397019713969C9365
:100A10008E931297203080E0380780E0480780E40A
:100A2000580758F314962D933D934D935C93179765
:100A300008952F3F310579F4411551056105710580
:100A400019F484E08C93089564FF03C081E08C93D3
:100A500012C01C9210C02F57304013963C932E9317
:100A6000129783E08C9387E0440F551F661F771F12
:100A70008A95D1F7706414964D935D936D937C9332
:100A8000179708951F93DC01FB019C91923008F4A5
:100A900047C08081823008F443C0943051F41196ED
:100AA0001C91843099F58181682F70E0611B710978
:100AB0003FC0843021F0923031F48230B9F181812D
:100AC000882389F12DC011961C9111978230F1F085
:100AD00081811817D9F412962D913C911397828138
:100AE00093818217930794F028173907BCF0149666
:100AF0008D919D910D90BC91A02D248135814681D1
:100B00005781281739074A075B0718F4112341F06A
:100B10000AC082179307A407B50740F4112319F000
:100B200061E070E005C06FEF7FEF02C060E070E051
:100B3000CB011F910895DF93CF9300D000D00F9287
:100B4000CDB7DEB78B831A82198282E06FEF0E94E5
:100B5000B30819823AC199818B81981769F4898108
:100B6000882F90E0FC01E859FF4F908182E0692FC7
:100B70000E94FB088A832DC189818A3008F422C132
:100B80008B81282F30E03D832C838C819D8189349B
:100B9000910509F4C5C02C813D812A343105BCF58D
:100BA0008C819D818434910509F492C02C813D8112
:100BB000253431059CF48C819D818234910509F4A2
:100BC00077C02C813D81233431050CF079C08C81B4
:100BD0009D818134910509F463C0F2C02C813D816F
:100BE0002634310509F484C08C819D8186349105B9
:100BF0000CF476C02C813D812734310509F480C086
:100C00008C819D818834910509F482C0D9C02C81E2
:100C10003D812335310509F4B3C08C819D81843534
:100C20009105FCF42C813D812C34310509F488C0F8
:100C30008C819D818D3491053CF42C813D812A3439
:100C4000310509F475C0BCC08C819D818F3491053C
:100C500009F47EC02C813D812035310509F480C026
:100C6000AFC08C819D818137910509F481C02C81B1
:100C70003D81223731053CF48C819D81853591057C
:100C800009F48EC09DC02C813D812437310509F4C3
:100C90007FC08C819D818937910509F489C090C0FE
:100CA0009091720082E0692F0E94FB088A838AC0BB
:100CB0009091730082E0692F0E94FB088A8382C0B2
:100CC0009091740082E0692F0E94FB088A837AC0A9
:100CD0009091750082E0692F0E94FB088A8372C0A0
:100CE0009091760082E0692F0E94FB088A836AC097
:100CF0009091770082E0692F0E94FB088A8362C08E
:100D00009091780082E0692F0E94FB088A835AC084
:100D10009091790082E0692F0E94FB088A8352C07B
:100D200090917A0082E0692F0E94FB088A834AC072
:100D300090917B0082E0692F0E94FB088A8342C069
:100D400090917C0082E0692F0E94FB088A833AC060
:100D500090917D0082E0692F0E94FB088A8332C057
:100D600090917E0082E0692F0E94FB088A832AC04E
:100D700090917F0082E0692F0E94FB088A8322C045
:100D80009091800082E0692F0E94FB088A831AC03C
:100D90009091810082E0692F0E94FB088A8312C033
:100DA0009091820082E0692F0E94FB088A830AC02A
:100DB0009091830082E0692F0E94FB088A8302C021
:100DC00081E08A8389818F5F898389818D3108F4ED
:100DD000C2CE89818D3111F481E08A838A810F909E
:100DE0000F900F900F900F90CF91DF910895DF93A8
:100DF000CF9300D000D00F92CDB7DEB78B831A828D
:100E0000198283E06FEF0E94B30819823AC1998179
:100E10008B81981769F48981882F90E0FC01E8594B
:100E2000FF4F908183E0692F0E94FB088A832DC1C8
:100E300089818A3008F422C18B81282F30E03D83DC
:100E40002C838C819D818934910509F4C5C02C8146
:100E50003D812A343105BCF58C819D818434910516
:100E600009F492C02C813D81253431059CF48C819C
:100E70009D818234910509F477C02C813D81233412
:100E800031050CF079C08C819D818134910509F484
:100E900063C0F2C02C813D812634310509F484C041
:100EA0008C819D81863491050CF476C02C813D8126
:100EB0002734310509F480C08C819D8188349105E7
:100EC00009F482C0D9C02C813D812335310509F454
:100ED000B3C08C819D8184359105FCF42C813D81CA
:100EE0002C34310509F488C08C819D818D349105A5
:100EF0003CF42C813D812A34310509F475C0BCC015
:100F00008C819D818F34910509F47EC02C813D81B7
:100F10002035310509F480C0AFC08C819D818137B7
:100F2000910509F481C02C813D81223731053CF4C3
:100F30008C819D818535910509F48EC09DC02C81E1
:100F40003D812437310509F47FC08C819D8189372B
:100F5000910509F489C090C09091720083E0692FD7
:100F60000E94FB088A838AC09091730083E0692FF6
:100F70000E94FB088A8382C09091740083E0692FED
:100F80000E94FB088A837AC09091750083E0692FE4
:100F90000E94FB088A8372C09091760083E0692FDB
:100FA0000E94FB088A836AC09091770083E0692FD2
:100FB0000E94FB088A8362C09091780083E0692FC9
:100FC0000E94FB088A835AC09091790083E0692FC0
:100FD0000E94FB088A8352C090917A0083E0692FB7
:100FE0000E94FB088A834AC090917B0083E0692FAE
:100FF0000E94FB088A8342C090917C0083E0692FA5
:101000000E94FB088A833AC090917D0083E0692F9B
:101010000E94FB088A8332C090917E0083E0692F92
:101020000E94FB088A832AC090917F0083E0692F89
:101030000E94FB088A8322C09091800083E0692F80
:101040000E94FB088A831AC09091810083E0692F77
:101050000E94FB088A8312C09091820083E0692F6E
:101060000E94FB088A830AC09091830083E0692F65
:101070000E94FB088A8302C081E08A8389818F5F96
:10108000898389818D3108F4C2CE89818D3111F433
:1010900081E08A838A810F900F900F900F900F90BC
:1010A000CF91DF910895DF93CF9300D000D00F92BE
:1010B000CDB7DEB78D831C821B821A8219828D8187
:1010C000843618F081E08C8345C082E06FEF0E9487
:1010D000B30883E06FEF0E94B3088D819AE0692F17
:1010E0000E94CB0C8B83198213C099818B81981736
:1010F00061F48981882F90E0FC01E859FF4F9081CD
:1011000083E0692F0E94FB0806C089818F5F898375
:1011100089818A3050F38D819AE0692F0E94CB0C2F
:10112000892F8A83198213C099818A81981761F463
:101130008981882F90E0FC01E859FF4F908182E07F
:10114000692F0E94FB0806C089818F5F898389818E
:101150008C3150F38C810F900F900F900F900F9067
:10116000CF91DF910895DF93CF9300D000D00F92FD
:10117000CDB7DEB78A836B8319828A81282F30E04E
:101180003D832C838C819D8181309105D1F02C8110
:101190003D81223031052CF48C819D81009761F0D6
:1011A0001FC02C813D812230310581F08C819D81D1
:1011B0008330910581F014C0EAE3F0E08B818083F5
:1011C00011C0E7E3F0E08B8180830CC0E4E3F0E042
:1011D0008B81808307C0E1E3F0E08B81808302C0D4
:1011E00081E0898389810F900F900F900F900F906D
:1011F000CF91DF910895DF93CF9300D000D00F926D
:10120000CDB7DEB78A836B8319828A81282F30E0BD
:101210003D832C838C819D8181309105D1F02C817F
:101220003D81223031052CF48C819D81009761F045
:101230001FC02C813D812230310581F08C819D8140
:101240008330910581F014C0EBE3F0E08B81808363
:1012500011C0E8E3F0E08B8180830CC0E5E3F0E0AF
:101260008B81808307C0E2E3F0E08B81808302C042
:1012700081E0898389810F900F900F900F900F90DC
:10128000CF91DF910895DF93CF9300D000D000D0AD
:10129000CDB7DEB78A836B834C8319828B8188300C
:1012A00010F081E089838C81882331F08C8181303A
:1012B00019F081E08983ACC08A81282F30E03E8319
:1012C0002D836D817E8161307105D1F18D819E818B
:1012D0008230910534F42D813E812115310571F064
:1012E00095C06D817E816230710509F44BC08D819E
:1012F0009E818330910509F467C088C0AAE3B0E0FD
:10130000EAE3F0E08081482F8B81282F30E081E0F4
:1013100090E002C0880F991F2A95E2F78095482334
:101320008C81282F30E08B81882F90E0B90102C09A
:10133000660F771F8A95E2F7CB01842B8C9368C0E8
:10134000A7E3B0E0E7E3F0E08081482F8B81282F0E
:1013500030E081E090E002C0880F991F2A95E2F703
:10136000809548238C81282F30E08B81882F90E056
:10137000B90102C0660F771F8A95E2F7CB01842B73
:101380008C9346C0A4E3B0E0E4E3F0E08081482F12
:101390008B81282F30E081E090E002C0880F991FF8
:1013A0002A95E2F7809548238C81282F30E08B81A5
:1013B000882F90E0B90102C0660F771F8A95E2F787
:1013C000CB01842B8C9324C0A1E3B0E0E1E3F0E0F7
:1013D0008081482F8B81282F30E081E090E002C08F
:1013E000880F991F2A95E2F7809548238C81282F32
:1013F00030E08B81882F90E0B90102C0660F771F23
:101400008A95E2F7CB01842B8C9302C081E089831B
:10141000898126960FB6F894DEBF0FBECDBFCF915F
:10142000DF910895DF93CF9300D000D000D0CDB7E7
:10143000DEB78A836B834C8319828B81883010F0EE
:1014400081E089838C81813031F08C81882319F08F
:1014500081E08983ACC08A81282F30E03E832D83D0
:101460006D817E8161307105D1F18D819E818230E7
:10147000910534F42D813E812115310571F095C01F
:101480006D817E816230710509F44BC08D819E8132
:101490008330910509F467C088C0ABE3B0E0EBE3AB
:1014A000F0E08081482F8B81282F30E081E090E0B0
:1014B00002C0880F991F2A95E2F7809548238C81F6
:1014C000282F30E08B81882F90E0B90102C0660F91
:1014D000771F8A95E2F7CB01842B8C9368C0A8E331
:1014E000B0E0E8E3F0E08081482F8B81282F30E0E6
:1014F00081E090E002C0880F991F2A95E2F780955D
:1015000048238C81282F30E08B81882F90E0B9010F
:1015100002C0660F771F8A95E2F7CB01842B8C936C
:1015200046C0A5E3B0E0E5E3F0E08081482F8B8181
:10153000282F30E081E090E002C0880F991F2A95A3
:10154000E2F7809548238C81282F30E08B81882F0B
:1015500090E0B90102C0660F771F8A95E2F7CB01D0
:10156000842B8C9324C0A2E3B0E0E2E3F0E080811E
:10157000482F8B81282F30E081E090E002C0880F57
:10158000991F2A95E2F7809548238C81282F30E017
:101590008B81882F90E0B90102C0660F771F8A9572
:1015A000E2F7CB01842B8C9302C081E0898389818F
:1015B00026960FB6F894DEBF0FBECDBFCF91DF9158
:1015C0000895DF93CF9300D000D000D0CDB7DEB721
:1015D0008A837C836B8319828A81282F30E03E8343
:1015E0002D838D819E8181309105E1F02D813E8199
:1015F000223031052CF48D819E81009761F027C047
:101600002D813E8122303105A1F08D819E81833074
:101610009105B1F01CC0E9E3F0E08081EB81FC8131
:10162000808317C0E6E3F0E08081EB81FC8180835A
:1016300010C0E3E3F0E08081EB81FC81808309C08E
:10164000E0E3F0E08081EB81FC81808302C081E0F7
:101650008983898126960FB6F894DEBF0FBECDBF71
:10166000CF91DF910895DF93CF93CDB7DEB7279762
:101670000FB6F894DEBF0FBECDBF8A836B835D8348
:101680004C8319828B81883018F081E0898373C084
:101690008A81282F30E03F832E834E815F81413045
:1016A000510559F18E819F818230910534F42E814C
:1016B0003F812115310569F05CC04E815F81423068
:1016C000510579F18E819F818330910509F43DC0E8
:1016D00050C0E9E3F0E08081282F30E08B81882F33
:1016E00090E0A90102C0559547958A95E2F7CA0195
:1016F0008170EC81FD8180833EC0E6E3F0E0808173
:10170000282F30E08B81882F90E0A90102C05595E9
:1017100047958A95E2F7CA018170EC81FD8180834B
:101720002AC0E3E3F0E08081282F30E08B81882F0E
:1017300090E0A90102C0559547958A95E2F7CA0144
:101740008170EC81FD81808316C0E0E3F0E0808150
:10175000282F30E08B81882F90E0A90102C0559599
:1017600047958A95E2F7CA018170EC81FD818083FB
:1017700002C081E08983898127960FB6F894DEBF85
:101780000FBECDBFCF91DF910895DF93CF93CDB73B
:10179000DEB76E970FB6F894DEBF0FBECDBF1E8EBC
:1017A0001D8E80E50E94F7068D8F88E40E949B05C0
:1017B0008D8F80E090E0AAEFB4E4898F9A8FAB8F91
:1017C000BC8F698D7A8D8B8D9C8D20E030E04AEF47
:1017D00054E40E941702DC01CB018D8B9E8BAF8BF2
:1017E000B88F6D897E898F89988D20E030E040E840
:1017F0005FE30E94710388232CF481E090E09C8BCE
:101800008B8B3FC06D897E898F89988D20E03FEF5B
:101810004FE757E40E94110318164CF5698D7A8D35
:101820008B8D9C8D20E030E040E251E40E94170255
:10183000DC01CB01BC01CD010E944100DC01CB01E8
:101840009C8B8B8B0FC088EC90E09A8B898B89895D
:101850009A890197F1F79A8B898B8B899C890197DB
:101860009C8B8B8B8B899C89009769F714C06D8941
:101870007E898F89988D0E944100DC01CB019C8B71
:101880008B8B8B899C89988B8F878F859889019703
:10189000F1F7988B8F871E8E79C08E8D0E9453082A
:1018A0008D8F80E090E0AAE7B4E48B879C87AD87BA
:1018B000BE876B857C858D859E8520E030E04AEF74
:1018C00054E40E941702DC01CB018F839887A9871B
:1018D000BA876F81788589859A8520E030E040E875
:1018E0005FE30E94710388232CF481E090E09E83E3
:1018F0008D833FC06F81788589859A8520E03FEF91
:101900004FE757E40E94110318164CF56B857C8550
:101910008D859E8520E030E040E251E40E94170270
:10192000DC01CB01BC01CD010E944100DC01CB01F7
:101930009E838D830FC088EC90E09C838B838B818A
:101940009C810197F1F79C838B838D819E81019708
:101950009E838D838D819E81009769F714C06F816E
:10196000788589859A850E944100DC01CB019E83A0
:101970008D838D819E819A83898389819A81019744
:10198000F1F79A8389838E8D8F5F8E8F8E8D84364B
:1019900008F483CF06CF991B79E004C0991F9617EE
:1019A00008F0961B881F7A95C9F7809508952F92A5
:1019B0003F924F925F926F927F928F929F92AF92DF
:1019C000BF92CF92DF92EF92FF920F931F93CF932C
:1019D000DF93CDB7DEB7CA1BDB0B0FB6F894DEBFC3
:1019E0000FBECDBF09942A88398848885F846E84E9
:1019F0007D848C849B84AA84B984C884DF80EE8033
:101A0000FD800C811B81AA81B981CE0FD11D0FB63B
:101A1000F894DEBF0FBECDBFED010895F894FFCF5F
:101A200000000000000000003F065B4F666D7D0770
:101A30007F6F777F393F79713D76300E383F73671E
:041A40006D783E6E11
:00000001FF
