:100000000C942A000C943F000C943F000C943F0089
:100010000C943F000C943F000C943F000C943F0064
:100020000C943F000C943F000C943F000C943F0054
:100030000C943F000C943F000C943F000C943F0044
:100040000C943F000C943F000C943F000C943F0034
:100050000C943F0011241FBECFE5D8E0DEBFCDBF1A
:1000600011E0A0E6B0E0ECECF5E302C005900D92E3
:10007000A837B107D9F70E9423180C94E41A0C94FE
:100080000000EF92FF920F931F937B018C0120E001
:1000900030E040E05FE40E94ED0388238CF0C8016B
:1000A000B70120E030E040E05FE40E94B9010E9427
:1000B0004D049B01AC01205030404040504806C0E8
:1000C000C801B7010E944D049B01AC01B901CA01EE
:1000D0001F910F91FF90EF900895A0E0B0E0E3E74B
:1000E000F0E00C94AD1ADC012B01FA019C919230E6
:1000F00008F439C1EB018881823008F433C19430AF
:1001000069F4843009F02FC111969C91119789816F
:10011000981709F428C1A0E6B0E025C1843009F49D
:1001200021C18230A9F4923009F01DC19A01AD01BC
:1001300088E0EA010990AE01E90109929E0181502F
:10014000C1F7E201898111969C918923818308C1BD
:10015000923009F407C112962D903C901397EB0151
:100160008A819B811496AD90BD90CD90DC901797BD
:10017000EC80FD800E811F819101281B390BB90194
:1001800037FF04C066277727621B730B6032710547
:100190000CF061C0121613066CF537014801062EEB
:1001A00004C096948794779467940A94D2F721E0D8
:1001B00030E040E050E004C0220F331F441F551FC1
:1001C0006A95D2F721503040404050402E213F21C7
:1001D00040235123211531054105510521F021E02E
:1001E00030E040E050E079018A01E628F72808294C
:1001F00019293CC0232BD1F1260E371E35014601AB
:10020000062E04C096948794779467940A94D2F744
:1002100021E030E040E050E004C0220F331F441FD3
:10022000551F6A95D2F721503040404050402A2156
:100230003B214C215D21211531054105510521F05E
:1002400021E030E040E050E059016A01A628B728DB
:10025000C828D9280BC0821593052CF01C01AA24AC
:10026000BB24650103C0EE24FF24870111969C91F5
:10027000D20111968C91981709F445C0992339F051
:10028000A80197012A193B094C095D0906C0A6017E
:1002900095012E193F09400B510B57FD08C01182E3
:1002A0003382228224833583468357831DC081E0B5
:1002B00081833382228288279927DC01821B930B5A
:1002C000A40BB50B84839583A683B7830DC0220F3F
:1002D000331F441F551F24833583468357838281F0
:1002E000938101979383828324813581468157814D
:1002F000DA01C9010197A109B1098F5F9F4FAF4F83
:10030000BF4328F30BC0918333822282EA0CFB1C8B
:100310000C1D1D1DE482F5820683178383E0808314
:10032000248135814681578157FF1AC0C901AA2708
:1003300097FDA095BA2F81709070A070B0705695FF
:10034000479537952795822B932BA42BB52B848328
:100350009583A683B7838281938101969383828359
:10036000DF0101C0D201CD01CDB7DEB7E2E10C94CF
:10037000C91AA0E2B0E0EFEBF1E00C94B91A69837E
:100380007A838B839C832D833E834F835887E9E058
:10039000EE2EF12CEC0EFD1ECE010196B7010E944F
:1003A0003E068E010F5E1F4FCE010596B8010E94DA
:1003B0003E068A8991E089278A8BC701B801AE0180
:1003C000475E5F4F0E946D000E946905A096E6E0BF
:1003D0000C94D51AA0E2B0E0E0EFF1E00C94B91A69
:1003E00069837A838B839C832D833E834F835887D5
:1003F000F9E0EF2EF12CEC0EFD1ECE010196B701B7
:100400000E943E068E010F5E1F4FCE010596B80179
:100410000E943E06C701B801AE01475E5F4F0E94D1
:100420006D000E946905A096E6E00C94D51AA0E242
:10043000B0E0EDE1F2E00C94AD1A69837A838B832E
:100440009C832D833E834F835887CE010196BE0146
:10045000675F7F4F0E943E06CE010596BE016F5E2C
:100460007F4F0E943E069985923088F089898230BC
:10047000C8F0943019F4823051F404C0843029F467
:10048000923081F480E690E0C6C0923049F420E0DA
:100490009A858A89981321E02A87CE010996BBC0E4
:1004A000823049F420E09A858A89981321E02A8BCA
:1004B000CE014196B0C02D843E844F8458886D880B
:1004C0007E888F88988CEE24FF248701AA24BB2481
:1004D000650140E050E060E070E0E0E0F0E0C10184
:1004E00081709070892BE9F0E60CF71C081D191D2E
:1004F0009A01AB012A0D3B1D4C1D5D1D80E090E073
:10050000A0E0B0E0E614F7040805190520F481E046
:1005100090E0A0E0B0E0BA01A901480F591F6A1F9E
:100520007B1FAA0CBB1CCC1CDD1C97FE08C081E005
:1005300090E0A0E0B0E0A82AB92ACA2ADB2A3196C6
:10054000E032F10549F0660C771C881C991C569422
:10055000479437942794C3CFFA85EA892B893C893D
:100560008B859C85280F391F2E5F3F4F17C0CA010E
:1005700081709070892B61F016950795F794E79438
:1005800080E090E0A0E0B0E8E82AF92A0A2B1B2BD3
:1005900076956795579547952F5F3F4F77FDE7CF46
:1005A0000CC0440F551F661F771F17FD4160EE0CEE
:1005B000FF1C001F111F21503040403090E05907B0
:1005C00090E0690790E4790760F32B8F3C8FDB01A3
:1005D000CA018F779070A070B07080349105A1052A
:1005E000B10561F447FD0AC0E114F10401051105EC
:1005F00029F0405C5F4F6F4F7F4F40781A8EFE1797
:1006000011F081E08A8F4D8F5E8F6F8F78A383E02A
:10061000898FCE0149960E946905A096E2E10C946B
:10062000C91AA8E1B0E0E7E1F3E00C94B51A6983D8
:100630007A838B839C832D833E834F835887B9E0D5
:10064000EB2EF12CEC0EFD1ECE010196B7010E949F
:100650003E068E010F5E1F4FCE010596B8010E9427
:100660003E062985223008F47EC03989323010F4E4
:10067000B8017CC08A859A8989278A87243011F03D
:10068000223031F4231709F06EC060E670E06EC0CE
:10069000343039F41D861E861F86188A1C861B86F8
:1006A00004C0323021F484E08987B7015FC02B8514
:1006B0003C858B899C89281B390B3C872B87ED84D3
:1006C000FE840F851889AD88BE88CF88D88CEA143F
:1006D000FB040C051D0540F4EE0CFF1C001F111F50
:1006E000215030403C872B8720E030E040E050E054
:1006F00080E090E0A0E0B0E460E070E0EA14FB0489
:100700000C051D0540F0282B392B4A2B5B2BEA18D2
:10071000FB080C091D09B695A79597958795EE0CD2
:10072000FF1C001F111F6F5F7F4F6F31710531F785
:10073000DA01C9018F779070A070B0708034910594
:10074000A105B10561F427FD0AC0E114F10401051A
:10075000110529F0205C3F4F4F4F5F4F20782D87C8
:100760003E874F87588BBE01675F7F4FCB010E944A
:1007700069056896EAE00C94D11AA8E1B0E0E3ECD0
:10078000F3E00C94B91A69837A838B839C832D835D
:100790003E834F83588789E0E82EF12CEC0EFD1E36
:1007A000CE010196B7010E943E068E010F5E1F4FDB
:1007B000CE010596B8010E943E068985823040F040
:1007C0008989823028F0C701B8010E94B60601C0AD
:1007D0008FEF6896E6E00C94D51AA8E1B0E0E3EF5D
:1007E000F3E00C94B91A69837A838B839C832D83FD
:1007F0003E834F83588789E0E82EF12CEC0EFD1ED6
:10080000CE010196B7010E943E068E010F5E1F4F7A
:10081000CE010596B8010E943E068985823040F0DF
:100820008989823028F0C701B8010E94B60601C04C
:100830008FEF6896E6E00C94D51AA8E1B0E0E3E209
:10084000F4E00C94B91A69837A838B839C832D839B
:100850003E834F83588789E0E82EF12CEC0EFD1E75
:10086000CE010196B7010E943E068E010F5E1F4F1A
:10087000CE010596B8010E943E068985823040F07F
:100880008989823028F0C701B8010E94B60601C0EC
:1008900081E06896E6E00C94D51AACE0B0E0E3E5C0
:1008A000F4E00C94BD1A69837A838B839C83CE0118
:1008B0000196BE016B5F7F4F0E943E068D818230A4
:1008C00061F1823050F1843021F48E81882351F11E
:1008D0002EC02F81388537FD20C06E812F31310524
:1008E0001CF06623F9F023C08EE190E0821B930B8D
:1008F00029853A854B855C8504C056954795379583
:1009000027958A95D2F76623B1F05095409530959A
:1009100021953F4F4F4F5F4F0EC020E030E040E049
:1009200050E009C02FEF3FEF4FEF5FE704C020E03A
:1009300030E040E050E8B901CA012C96E2E00C94A6
:10094000D91AA8E0B0E0E7EAF4E00C94B51A7B010C
:100950008C01611571058105910519F482E0898387
:1009600060C083E089838EE1C82ED12CDC82CB82EB
:10097000ED82FE820F831887C801B7010E941A0515
:10098000FC013197F7FF3BC0222733272E1B3F0B7B
:1009900057016801022E04C0D694C794B794A79457
:1009A0000A94D2F740E050E060E070E081E090E02F
:1009B000A0E0B0E004C0880F991FAA1FBB1F2A95B2
:1009C000D2F70197A109B1098E219F21A023B1235C
:1009D0000097A105B10521F041E050E060E070E032
:1009E0004A295B296C297D294D835E836F83788733
:1009F0008EE190E08E1B9F0B9C838B8312C03097FF
:100A000081F00E2E04C0EE0CFF1C001F111F0A9473
:100A1000D2F7ED82FE820F831887CE1ADF0ADC82BE
:100A2000CB821A82CE0101960E9469052896EAE0DF
:100A30000C94D11AEF92FF920F931F937B018C01BC
:100A400080E0E81680E0F80681E0080780E01807FB
:100A500088F48FEFE816F1040105110531F028F054
:100A600088E090E0A0E0B0E017C080E090E0A0E077
:100A7000B0E012C080E0E81680E0F80680E00807E9
:100A800081E0180728F088E190E0A0E0B0E004C021
:100A900080E190E0A0E0B0E020E230E040E050E013
:100AA000281B390B4A0B5B0B04C016950795F7946E
:100AB000E7948A95D2F7F701E859FF4F8081281B08
:100AC000310941095109C9011F910F91FF90EF9020
:100AD0000895DF92EF92FF920F931F93FC01E48041
:100AE000F58006811781D1808081823048F480E0D2
:100AF00090E0A0E1B0E0E82AF92A0A2B1B2BA5C060
:100B0000843009F49FC0823021F4EE24FF24870151
:100B100005C0E114F1040105110519F4E0E0F0E06D
:100B200096C0628173819FEF623879070CF05BC0D9
:100B300022E83FEF261B370B2A3131052CF020E04D
:100B400030E040E050E02AC0B801A701022E04C006
:100B500076956795579547950A94D2F781E090E08E
:100B6000A0E0B0E004C0880F991FAA1FBB1F2A9500
:100B7000D2F70197A109B1098E219F21A023B123AA
:100B80000097A105B10521F081E090E0A0E0B0E080
:100B90009A01AB01282B392B4A2B5B2BDA01C901B7
:100BA0008F779070A070B07080349105A105B10569
:100BB00039F427FF09C0205C3F4F4F4F5F4F04C0FF
:100BC000215C3F4F4F4F5F4FE0E0F0E02030A0E06E
:100BD0003A07A0E04A07A0E45A0710F0E1E0F0E08D
:100BE00079018A0127C06038710564F5FB01E1587D
:100BF000FF4FD801C7018F779070A070B07080341C
:100C00009105A105B10539F4E7FE0DC080E490E03F
:100C1000A0E0B0E004C08FE390E0A0E0B0E0E80E18
:100C2000F91E0A1F1B1F17FF05C016950795F7949D
:100C3000E794319687E016950795F794E7948A959F
:100C4000D1F705C0EE24FF248701EFEFF0E06E2F0F
:100C5000679566276795902F9F77D794DD24D79463
:100C60008E2F8695492F462B582F5D29B701CA0133
:100C70001F910F91FF90EF90DF900895FC01DB0131
:100C8000408151812281622F6F7770E0221F2227DD
:100C9000221F9381892F880F822B282F30E0991FE4
:100CA0009927991F11969C93119721153105A9F544
:100CB000411551056105710511F482E037C082E8E4
:100CC0009FEF13969C938E9312979A01AB0167E066
:100CD000220F331F441F551F6A95D1F783E08C9371
:100CE0000DC0220F331F441F551F12968D919C91EA
:100CF0001397019713969C938E931297203080E060
:100D0000380780E0480780E4580758F314962D937D
:100D10003D934D935C93179708952F3F310579F4D8
:100D2000411551056105710519F484E08C9308950E
:100D300064FF03C081E08C9312C01C9210C02F5737
:100D4000304013963C932E93129783E08C9387E068
:100D5000440F551F661F771F8A95D1F7706414964C
:100D60004D935D936D937C93179708951F93DC01CA
:100D7000FB019C91923008F447C08081823008F4D6
:100D800043C0943051F411961C91843099F58181BF
:100D9000682F70E0611B71093FC0843021F09230F0
:100DA00031F48230B9F18181882389F12DC0119607
:100DB0001C9111978230F1F081811817D9F41296A5
:100DC0002D913C911397828193818217930794F020
:100DD00028173907BCF014968D919D910D90BC9108
:100DE000A02D2481358146815781281739074A076C
:100DF0005B0718F4112341F00AC082179307A40778
:100E0000B50740F4112319F061E070E005C06FEF01
:100E10007FEF02C060E070E0CB011F910895DF9387
:100E2000CF9300D000D00F92CDB7DEB76A837B831B
:100E30008C839D83198215C08A819B81AC81BD8181
:100E40002AE030E040E050E0BC01CD010E948B1A66
:100E5000DA01C9018A839B83AC83BD8389818F5F5B
:100E600089838A819B81AC81BD810097A105B105F1
:100E700019F789810F900F900F900F900F90CF91DD
:100E8000DF910895DF93CF9300D000D00F92CDB7BC
:100E9000DEB78A836B8319828A81282F30E03D83F5
:100EA0002C838C819D8181309105D1F02C813D81F5
:100EB000223031052CF48C819D81009761F01FC098
:100EC0002C813D812230310581F08C819D818330E0
:100ED000910581F014C0EAE3F0E08B81808311C0BA
:100EE000E7E3F0E08B8180830CC0E4E3F0E08B81EA
:100EF000808307C0E1E3F0E08B81808302C081E062
:100F0000898389810F900F900F900F900F90CF9150
:100F1000DF910895DF93CF9300D000D00F92CDB72B
:100F2000DEB78A836B8319828A81282F30E03D8364
:100F30002C838C819D8181309105D1F02C813D8164
:100F4000223031052CF48C819D81009761F01FC007
:100F50002C813D812230310581F08C819D8183304F
:100F6000910581F014C0EBE3F0E08B81808311C028
:100F7000E8E3F0E08B8180830CC0E5E3F0E08B8157
:100F8000808307C0E2E3F0E08B81808302C081E0D0
:100F9000898389810F900F900F900F900F90CF91C0
:100FA000DF910895DF93CF9300D000D000D0CDB76C
:100FB000DEB78A836B834C8319828B81883010F073
:100FC00081E089838C81882331F08C81813019F014
:100FD00081E08983ACC08A81282F30E03E832D8355
:100FE0006D817E8161307105D1F18D819E8182306C
:100FF000910534F42D813E812115310571F095C0A4
:101000006D817E816230710509F44BC08D819E81B6
:101010008330910509F467C088C0AAE3B0E0EAE331
:10102000F0E08081482F8B81282F30E081E090E034
:1010300002C0880F991F2A95E2F7809548238C817A
:10104000282F30E08B81882F90E0B90102C0660F15
:10105000771F8A95E2F7CB01842B8C9368C0A7E3B6
:10106000B0E0E7E3F0E08081482F8B81282F30E06B
:1010700081E090E002C0880F991F2A95E2F78095E1
:1010800048238C81282F30E08B81882F90E0B90194
:1010900002C0660F771F8A95E2F7CB01842B8C93F1
:1010A00046C0A4E3B0E0E4E3F0E08081482F8B8108
:1010B000282F30E081E090E002C0880F991F2A9528
:1010C000E2F7809548238C81282F30E08B81882F90
:1010D00090E0B90102C0660F771F8A95E2F7CB0155
:1010E000842B8C9324C0A1E3B0E0E1E3F0E08081A5
:1010F000482F8B81282F30E081E090E002C0880FDC
:10110000991F2A95E2F7809548238C81282F30E09B
:101110008B81882F90E0B90102C0660F771F8A95F6
:10112000E2F7CB01842B8C9302C081E08983898113
:1011300026960FB6F894DEBF0FBECDBFCF91DF91DC
:101140000895DF93CF9300D000D000D0CDB7DEB7A5
:101150008A836B834C8319828B81883010F081E005
:1011600089838C81813031F08C81882319F081E072
:101170008983ACC08A81282F30E03E832D836D8126
:101180007E8161307105D1F18D819E818230910522
:1011900034F42D813E812115310571F095C06D81AA
:1011A0007E816230710509F44BC08D819E81833050
:1011B000910509F467C088C0ABE3B0E0EBE3F0E071
:1011C0008081482F8B81282F30E081E090E002C0A1
:1011D000880F991F2A95E2F7809548238C81282F44
:1011E00030E08B81882F90E0B90102C0660F771F35
:1011F0008A95E2F7CB01842B8C9368C0A8E3B0E01A
:10120000E8E3F0E08081482F8B81282F30E081E0F7
:1012100090E002C0880F991F2A95E2F78095482335
:101220008C81282F30E08B81882F90E0B90102C09B
:10123000660F771F8A95E2F7CB01842B8C9346C00B
:10124000A5E3B0E0E5E3F0E08081482F8B81282F13
:1012500030E081E090E002C0880F991F2A95E2F704
:10126000809548238C81282F30E08B81882F90E057
:10127000B90102C0660F771F8A95E2F7CB01842B74
:101280008C9324C0A2E3B0E0E2E3F0E08081482F39
:101290008B81282F30E081E090E002C0880F991FF9
:1012A0002A95E2F7809548238C81282F30E08B81A6
:1012B000882F90E0B90102C0660F771F8A95E2F788
:1012C000CB01842B8C9302C081E08983898126968F
:1012D0000FB6F894DEBF0FBECDBFCF91DF9108955A
:1012E000DF93CF9300D000D000D0CDB7DEB78A8394
:1012F0007C836B8319828B819C81009719F481E038
:1013000089833DC08A81282F30E03E832D838D81E3
:101310009E8181309105E1F02D813E8122303105A1
:101320002CF48D819E81009761F027C02D813E8134
:1013300022303105A1F08D819E8183309105B1F07D
:101340001CC0E9E3F0E08081EB81FC81808317C061
:10135000E6E3F0E08081EB81FC81808310C0E3E371
:10136000F0E08081EB81FC81808309C0E0E3F0E064
:101370008081EB81FC81808302C081E08983898147
:1013800026960FB6F894DEBF0FBECDBFCF91DF918A
:101390000895DF93CF93CDB7DEB727970FB6F894B4
:1013A000DEBF0FBECDBF8A836B835D834C83198202
:1013B0008C819D81009711F481E089838B81883035
:1013C00018F081E0898373C08A81282F30E03F8341
:1013D0002E834E815F814130510559F18E819F816D
:1013E0008230910534F42E813F812115310569F059
:1013F0005CC04E815F814230510579F18E819F81C1
:101400008330910509F43DC050C0E9E3F0E08081EC
:10141000282F30E08B81882F90E0A90102C05595DC
:1014200047958A95E2F7CA018170EC81FD8180833E
:101430003EC0E6E3F0E08081282F30E08B81882FEA
:1014400090E0A90102C0559547958A95E2F7CA0137
:101450008170EC81FD8180832AC0E3E3F0E080812C
:10146000282F30E08B81882F90E0A90102C055958C
:1014700047958A95E2F7CA018170EC81FD818083EE
:1014800016C0E0E3F0E08081282F30E08B81882FC8
:1014900090E0A90102C0559547958A95E2F7CA01E7
:1014A0008170EC81FD81808302C081E08983898124
:1014B00027960FB6F894DEBF0FBECDBFCF91DF9158
:1014C0000895DF93CF9300D000D00F92CDB7DEB751
:1014D0008A836B8319828B81883018F48A818430E7
:1014E00018F081E0898371C08A81282F30E03D8324
:1014F0002C838C819D818130910549F12C813D8126
:10150000223031052CF48C819D81009761F05BC005
:101510002C813D812230310571F18C819D81833098
:101520009105E9F150C0ABE3B0E0EBE3F0E080817E
:10153000482F8B81282F30E081E090E0022E02C0FE
:10154000880F991F0A94E2F784278C933EC0A8E382
:10155000B0E0E8E3F0E08081482F8B81282F30E075
:1015600081E090E0022E02C0880F991F0A94E2F7F2
:1015700084278C932AC0A5E3B0E0E5E3F0E0808106
:10158000482F8B81282F30E081E090E0022E02C0AE
:10159000880F991F0A94E2F784278C9316C0A2E360
:1015A000B0E0E2E3F0E08081482F8B81282F30E02B
:1015B00081E090E0022E02C0880F991F0A94E2F7A2
:1015C00084278C9302C081E0898389810F900F90DA
:1015D0000F900F900F90CF91DF910895DF93CF93ED
:1015E0000F92CDB7DEB7198283E06FE00E94420709
:1015F00083E06FEF0E948A0789810F90CF91DF917E
:101600000895DF93CF9300D000D000D0CDB7DEB7E0
:101610009E838D831B821A8219821C821A8248C083
:1016200083E06A8140E00E94A108198236C0898166
:10163000982F9C5F9E012C5F3F4F83E0692FA9018B
:101640000E94C9098C81882329F58981482F50E09F
:101650008A81282F30E0CA01880F991F880F991FAF
:10166000820F931FFC01E859FE4F8081ED81FE81BE
:10167000808381E08B830BC08981982F9C5F9E01C2
:101680002C5F3F4F83E0692FA9010E94C9098C811B
:10169000813091F789818F5F89838981843038F225
:1016A00083E06A8141E00E94A1088A818F5F8A837A
:1016B0008A81843008F4B4CF8B8126960FB6F894D3
:1016C000DEBF0FBECDBFCF91DF910895DF93CF93E3
:1016D000CDB7DEB72F970FB6F894DEBF0FBECDBFE4
:1016E0008F8782E062E040E00E94A10882E060E033
:1016F00040E00E94A10882E061E040E00E94A10871
:1017000081E06F850E948A0782E062E041E00E94EA
:10171000A10880E090E0A0E0B0E48B879C87AD87D3
:10172000BE876B857C858D859E8520E030E04AEF05
:1017300054E40E941702DC01CB018F839887A987AC
:10174000BA876F81788589859A8520E030E040E806
:101750005FE30E941D0488232CF481E090E09E83C7
:101760008D833FC06F81788589859A8520E03FEF22
:101770004FE757E40E94BD0318164CF56B857C8536
:101780008D859E8520E030E040E251E40E94170202
:10179000DC01CB01BC01CD010E944100DC01CB0189
:1017A0009E838D830FC088EC90E09C838B838B811C
:1017B0009C810197F1F79C838B838D819E8101979A
:1017C0009E838D838D819E81009769F714C06F8100
:1017D000788589859A850E944100DC01CB019E8332
:1017E0008D838D819E819A83898389819A810197D6
:1017F000F1F79A83898382E062E040E00E94A108C9
:101800002F960FB6F894DEBF0FBECDBFCF91DF91FC
:101810000895DF93CF93CDB7DEB72F970FB6F89427
:10182000DEBF0FBECDBF8F8782E062E040E00E9446
:10183000A10882E060E041E00E94A10882E061E04E
:1018400040E00E94A10881E06F850E948A0782E043
:1018500062E041E00E94A10880E090E0A0E0B0E4F6
:101860008B879C87AD87BE876B857C858D859E85A4
:1018700020E030E04AEF54E40E941702DC01CB0183
:101880008F839887A987BA876F81788589859A859C
:1018900020E030E040E85FE30E941D0488232CF440
:1018A00081E090E09E838D833FC06F81788589853C
:1018B0009A8520E03FEF4FE757E40E94BD031816DA
:1018C0004CF56B857C858D859E8520E030E040E27F
:1018D00051E40E941702DC01CB01BC01CD010E9442
:1018E0004100DC01CB019E838D830FC088EC90E02A
:1018F0009C838B838B819C810197F1F79C838B83E5
:101900008D819E8101979E838D838D819E8100971D
:1019100069F714C06F81788589859A850E94410096
:10192000DC01CB019E838D838D819E819A83898387
:1019300089819A810197F1F79A83898382E062E035
:1019400040E00E94A1082F960FB6F894DEBF0FBEAC
:10195000CDBFCF91DF9108950F931F93DF93CF9366
:10196000CDB7DEB7C655D0400FB6F894DEBF0FBE78
:10197000CDBF81E06FEF0E94420782E060E041E06E
:101980000E94D20782E061E041E00E94D20782E03B
:1019900062E041E00E94D207FE01ED5AFF4F80E075
:1019A00090E0ACE0B2E480839183A283B3838E01A4
:1019B000015B1F4FFE01ED5AFF4F608171818281F3
:1019C000938120E030E04AEF54E40E941702DC01EA
:1019D000CB01F80180839183A283B383FE01E15B95
:1019E000FF4F608171818281938120E030E040E887
:1019F0005FE30E941D04882344F4FE01E35BFF4F74
:101A000081E090E09183808364C0FE01E15BFF4F41
:101A1000608171818281938120E03FEF4FE757E43D
:101A20000E94BD0318160CF043C0FE01ED5AFF4F93
:101A3000608171818281938120E030E040E251E455
:101A40000E941702DC01CB018E01035B1F4FBC011A
:101A5000CD010E944100DC01CB01F801918380831C
:101A60001FC0FE01E55BFF4F88EC90E0918380830F
:101A7000FE01E55BFF4F808191810197F1F7FE0147
:101A8000E55BFF4F91838083DE01A35BBF4FFE01C7
:101A9000E35BFF4F80819181019711969C938E9318
:101AA000FE01E35BFF4F808191810097D1F627C053
:101AB0008E01035B1F4FFE01E15BFF4F608171816F
:101AC000828193810E944100DC01CB01F801918366
:101AD0008083DE01A75BBF4FFE01E35BFF4F808188
:101AE00091818D939C93FE01E75BFF4F80819181F3
:101AF0000197F1F7FE01E75BFF4F918380838CE351
:101B00000E94660BFE01EB5BFF4F80E090E0A4E3D8
:101B1000B2E480839183A283B3838E010F5B1F4F56
:101B2000FE01EB5BFF4F60817181828193812BEA23
:101B30003AEA4AE250E40E941702DC01CB01F801C4
:101B400080839183A283B383FE01EF5BFF4F6081AB
:101B500071818281938120E030E040E85FE30E9460
:101B60001D04882334F481E0FE01E05CFF4F808394
:101B70009DC0FE01EF5BFF4F608171818281938187
:101B800020E030E04FE753E40E94BD0318160CF04C
:101B90007EC0FE01EB5BFF4F60817181828193818A
:101BA00020E030E04AE754E40E941103DC01CB015D
:101BB0008CAF9DAFAEAFBFAF6CAD7DAD8EAD9FAD09
:101BC00020E030E04AEF54E40E941702DC01CB0130
:101BD00088AF99AFAAAFBBAF68AD79AD8AAD9BAD09
:101BE00020E030E040E85FE30E941D0488232CF4ED
:101BF00081E090E09FAB8EAB3FC068AD79AD8AAD20
:101C00009BAD20E03FEF4FE757E40E94BD0318165D
:101C10004CF56CAD7DAD8EAD9FAD20E030E040E287
:101C200051E40E941702DC01CB01BC01CD010E94EE
:101C30004100DC01CB019FAB8EAB0FC088EC90E084
:101C40009DAB8CAB8CA99DA90197F1F79DAB8CAB9B
:101C50008EA99FA901979FAB8EAB8EA99FA90097D4
:101C600069F72DC068AD79AD8AAD9BAD0E9441008A
:101C7000DC01CB019FAB8EAB8EA99FA99BAB8AAB3E
:101C80008AA99BA90197F1F79BAB8AAB18C0FE010B
:101C9000EF5BFF4F60817181828193810E944100DF
:101CA000DC01CB01FE01E05CFF4F8083FE01E05CC4
:101CB000FF4F808189AB89A98A95F1F789AB8CE0C8
:101CC0000E94660B80E090E0A0E8B0E48DA79EA79C
:101CD000AFA7B8AB6DA57EA58FA598A92BEA3AEA68
:101CE0004AE250E40E941702DC01CB0189A79AA7BF
:101CF000ABA7BCA769A57AA58BA59CA520E030E081
:101D000040E85FE30E941D0488231CF481E088A75B
:101D100091C069A57AA58BA59CA520E030E04FE78E
:101D200053E40E94BD0318160CF07BC06DA57EA580
:101D30008FA598A920E030E04AE754E40E941103FF
:101D4000DC01CB018CA39DA3AEA3BFA36CA17DA19D
:101D50008EA19FA120E030E04AEF54E40E941702D8
:101D6000DC01CB0188A399A3AAA3BBA368A179A195
:101D70008AA19BA120E030E040E85FE30E941D04BF
:101D800088232CF481E090E09F8F8E8F3FC068A164
:101D900079A18AA19BA120E03FEF4FE757E40E9481
:101DA000BD0318164CF56CA17DA18EA19FA120E06A
:101DB00030E040E251E40E941702DC01CB01BC019B
:101DC000CD010E944100DC01CB019F8F8E8F0FC09F
:101DD00088EC90E09D8F8C8F8C8D9D8D0197F1F715
:101DE0009D8F8C8F8E8D9F8D01979F8F8E8F8E8D67
:101DF0009F8D009769F724C068A179A18AA19BA152
:101E00000E944100DC01CB019F8F8E8F8E8D9F8DB4
:101E10009B8F8A8F8A8D9B8D0197F1F79B8F8A8F7D
:101E20000FC069A57AA58BA59CA50E944100DC0185
:101E3000CB0188A788A5898F898D8A95F1F7898F2D
:101E400081E00E94660B80E090E0A8ECB4E48D8B0A
:101E50009E8BAF8BB88F6D897E898F89988D2BEA89
:101E60003AEA4AE250E40E941702DC01CB01898B76
:101E70009A8BAB8BBC8B69897A898B899C8920E092
:101E800030E040E85FE30E941D0488231CF481E0F9
:101E9000888B91C069897A898B899C8920E030E0A0
:101EA0004FE753E40E94BD0318160CF07BC06D8908
:101EB0007E898F89988D20E030E04AE754E40E94C3
:101EC0001103DC01CB018C879D87AE87BF876C85B2
:101ED0007D858E859F8520E030E04AEF54E40E94A6
:101EE0001702DC01CB0188879987AA87BB876885A1
:101EF00079858A859B8520E030E040E85FE30E9499
:101F00001D0488232CF481E090E09F838E833FC0E2
:101F1000688579858A859B8520E03FEF4FE757E408
:101F20000E94BD0318164CF56C857D858E859F85B6
:101F300020E030E040E251E40E941702DC01CB01D6
:101F4000BC01CD010E944100DC01CB019F838E8347
:101F50000FC088EC90E09D838C838C819D810197DC
:101F6000F1F79D838C838E819F8101979F838E8360
:101F70008E819F81009769F724C0688579858A855D
:101F80009B850E944100DC01CB019F838E838E8163
:101F90009F819B838A838A819B810197F1F79B8331
:101FA0008A830FC069897A898B899C890E94410044
:101FB000DC01CB01888B8889898389818A95F1F737
:101FC0008983CA5ADF4F0FB6F894DEBF0FBECDBF6C
:101FD000CF91DF911F910F910895DF93CF93CDB7EC
:101FE000DEB781E00E94660BCF91DF910895DF9309
:101FF000CF9300D000D00F92CDB7DEB79C838B83F8
:102000006D831A82198219820EC08981282F30E0CF
:102010008B819C81FC01E20FF31F80810E94090CDF
:1020200089818F5F898399818D81981770F38A8167
:102030000F900F900F900F900F90CF91DF91089518
:10204000DF93CF9300D000D0CDB7DEB78B836C8306
:102050001A8219828C81882F90E0002496958795AA
:102060000794969587950794982F802D982F8B81AC
:10207000890F8058898389810E94660B8A810F901D
:102080000F900F900F90CF91DF910895DF93CF9332
:1020900000D000D00F92CDB7DEB79C838B836D83C9
:1020A0001A8219828D81813418F081E08A831AC0E6
:1020B00080E40E94660B19820EC08981282F30E0CF
:1020C0008B819C81FC01E20FF31F80810E94090C2F
:1020D00089818F5F89838981803478F380E060E033
:1020E0000E9420108A810F900F900F900F900F90F8
:1020F000CF91DF910895DF93CF93CDB7DEB761978E
:102100000FB6F894DEBF0FBECDBF6A877B878C8782
:102110009D874E872F87198618861F821E821D82F3
:1021200019821A821B821C828E85803118F48F8559
:10213000823018F081E0898740C18A859B85AC8513
:10214000BD850097A105B10539F48E856F850E9484
:10215000201080E30E94090C8A859B85AC85BD8593
:1021600089839A83AB83BC8315C089819A81AB81B3
:10217000BC812AE030E040E050E0BC01CD010E948B
:102180008B1ADA01C90189839A83AB83BC838F815F
:102190008F5F8F8389819A81AB81BC810097A10574
:1021A000B10519F78F818E838A859B85AC85BD85A6
:1021B00089839A83AB83BC831886FAC089819A810C
:1021C000AB81BC812AE030E040E050E0BC01CD01B1
:1021D0000E948B1ADC01CB018D838D81282F30E08A
:1021E000398B288B888999898430910509F47BC0C3
:1021F0002889398925303105ECF48889998981301D
:10220000910509F449C028893989223031052CF417
:1022100088899989009799F1B4C028893989223031
:10222000310509F446C0888999898330910509F4FC
:102230004DC0A7C0288939892730310509F47AC0F3
:1022400088899989883091056CF4288939892530E5
:10225000310509F455C0888999898630910509F4BA
:102260005CC08FC0288939892830310509F46FC0D6
:10227000888999898930910509F476C082C08F8157
:1022800081508F839F818E85890F6F850E942010DA
:1022900080E30E94090C77C08F8181508F839F81DA
:1022A0008E85890F6F850E94201081E30E94090CA2
:1022B0006AC08F8181508F839F818E85890F6F8542
:1022C0000E94201082E30E94090C5DC08F81815022
:1022D0008F839F818E85890F6F850E94201083E3F5
:1022E0000E94090C50C08F8181508F839F818E8501
:1022F000890F6F850E94201084E30E94090C43C05F
:102300008F8181508F839F818E85890F6F850E9479
:10231000201085E30E94090C36C08F8181508F8385
:102320009F818E85890F6F850E94201086E30E9411
:10233000090C29C08F8181508F839F818E85890FE1
:102340006F850E94201087E30E94090C1CC08F81BA
:1023500081508F839F818E85890F6F850E94201009
:1023600088E30E94090C0FC08F8181508F839F8169
:102370008E85890F6F850E94201089E30E94090CC9
:1023800002C081E0898789819A81AB81BC812AE082
:1023900030E040E050E0BC01CD010E948B1ADA0130
:1023A000C90189839A83AB83BC8388858F5F8887C3
:1023B00098858E81981708F401CF898561960FB6AC
:1023C000F894DEBF0FBECDBFCF91DF9108950F937C
:1023D0001F93DF93CF93CDB7DEB7C056D0400FB673
:1023E000F894DEBF0FBECDBFFE01E65AFF4F9183CA
:1023F0008083FE01E45AFF4F6083FE01E35AFF4FE2
:1024000051834083FE01E15AFF4F2083FE01E05AD1
:10241000FF4F0083FE01E75AFF4F1082FE01E85A8A
:10242000FF4F1082FE01E95AFF4F1082FE01EA5A67
:10243000FF4F1082DE01AB5ABF4FFE01E45AFF4F3F
:1024400080818C93FE01E45AFF4F8081853160F4D6
:10245000FE01E05AFF4F8081823030F4FE01E15AE4
:10246000FF4F8081823030F0FE01E75AFF4F81E05C
:102470008083D9C5FE01E15AFF4F8081813009F088
:10248000E9C1FE01E05AFF4F8081882309F0E2C1D3
:10249000DE01A95ABF4FFE01E45AFF4F97E6808143
:1024A000292F281B822F8C93FE01E85AFF4F1082A0
:1024B000C9C1FE01E85AFF4F8081482F50E0FE015C
:1024C000E45AFF4F8081282F30E080E190E0821BAA
:1024D000930B481759070CF406C1FE01E85AFF4F49
:1024E000DE01A05ABF4F80816C910E942010FE0136
:1024F000E65AFF4F80819181FE01E45AFF4F6081CF
:102500000E94F70FFE01E95AFF4FDE01A05ABF4FAC
:1025100080816C910E942010FE01E65AFF4F80815D
:102520009181FE01E45AFF4F60810E94F70FFE0186
:10253000E35AFF4F80819181CC01A0E0B0E0BC0163
:10254000CD010E94A104DC01CB01FE01EF5AFF4F37
:1025500080839183A283B3838E01035B1F4FFE01AF
:10256000EF5AFF4F608171818281938120E030E0DA
:102570004AEF54E40E941702DC01CB01F80180838A
:102580009183A283B383FE01E35BFF4F608171817E
:102590008281938120E030E040E85FE30E941D04E7
:1025A000882344F4FE01E55BFF4F81E090E09183D6
:1025B000808364C0FE01E35BFF4F60817181828193
:1025C000938120E03FEF4FE757E40E94BD031816C8
:1025D0000CF043C0FE01EF5AFF4F60817181828190
:1025E000938120E030E040E251E40E941702DC01D8
:1025F000CB018E01055B1F4FBC01CD010E94410044
:10260000DC01CB01F801918380831FC0FE01E75BF1
:10261000FF4F88EC90E091838083FE01E75BFF4FE2
:10262000808191810197F1F7FE01E75BFF4F918374
:102630008083DE01A55BBF4FFE01E55BFF4F80811C
:102640009181019711969C938E93FE01E55BFF4F5C
:10265000808191810097D1F627C08E01055B1F4FC5
:10266000FE01E35BFF4F60817181828193810E9453
:102670004100DC01CB01F80191838083DE01A95B7D
:10268000BF4FFE01E55BFF4F808191818D939C934D
:10269000FE01E95BFF4F808191810197F1F7FE0117
:1026A000E95BFF4F918380830E94ED0FDE01A95A01
:1026B000BF4FFE01E95AFF4F80818F5F8C93FE016F
:1026C000E95AFF4F8081873609F0B3C0DE01A95A6D
:1026D000BF4FFE01E45AFF4F97E68081F92FF81BA8
:1026E0008F2F8C93A0C4FE01E85AFF4FDE01A05A41
:1026F000BF4F80816C910E942010FE01E65AFF4F6F
:1027000080819181FE01E45AFF4F60810E94F70FA2
:10271000FE01E35AFF4F80819181CC01A0E0B0E03F
:10272000BC01CD010E94A104DC01CB01FE01ED5BE7
:10273000FF4F80839183A283B3838E01015C1F4F7F
:10274000FE01ED5BFF4F608171818281938120E00A
:1027500030E04AEF54E40E941702DC01CB01F8019B
:1027600080839183A283B383FE01FF966081718190
:102770008281938120E030E040E85FE30E941D0405
:1027800088232CF481E090E09EAF8DAF46C0FE011F
:10279000FF96608171818281938120E03FEF4FE756
:1027A00057E40E94BD03181664F5FE01ED5BFF4F70
:1027B000608171818281938120E030E040E251E4C8
:1027C0000E941702DC01CB01BC01CD010E94410037
:1027D000DC01CB019EAF8DAF0FC088EC90E09CAFC9
:1027E0008BAF8BAD9CAD0197F1F79CAF8BAF8DADEF
:1027F0009EAD01979EAF8DAF8DAD9EAD009769F7F1
:1028000016C0FE01FF9660817181828193810E94D2
:102810004100DC01CB019EAF8DAF8DAD9EAD9AAF77
:1028200089AF89AD9AAD0197F1F79AAF89AF0E9450
:10283000ED0FDE01A85ABF4FFE01E85AFF4F80811D
:102840008F5F8C93FE01E85AFF4F80818A3208F433
:1028500030CEE9C3FE01E15AFF4F8081882309F0A1
:1028600020C1FE01E05AFF4F8081882309F019C181
:10287000DE01A95ABF4FFE01E45AFF4F80818859FB
:102880008C93FE01EA5AFF4F80E18083FE01E85AF3
:10289000FF4F88E68083F9C0FE01E85AFF4FDE0152
:1028A000A05ABF4F80816C910E942010FE01E65A11
:1028B000FF4F80819181FE01E45AFF4F60810E94A9
:1028C000F70FFE01E45AFF4F80818031F8F4FE01DA
:1028D000EA5AFF4FDE01A05ABF4F80816C910E94DF
:1028E0002010FE01E65AFF4F80819181FE01E45ADB
:1028F000FF4F60810E94F70FDE01AA5ABF4FFE0111
:10290000EA5AFF4F808181508C931EC0FE01EB5A22
:10291000FF4FDE01A05ABF4F80816C910E942010B2
:10292000FE01E65AFF4F80819181FE01E45AFF4F7C
:1029300060810E94F70FDE01AB5ABF4FFE01EB5AD8
:10294000FF4F808181508C93FE01E35AFF4F8081BD
:102950009181CC01A0E0B0E0BC01CD010E94A104B6
:10296000DC01CB018DAB9EABAFABB8AF6DA97EA93F
:102970008FA998AD20E030E04AEF54E40E9417029E
:10298000DC01CB0189AB9AABABABBCAB69A97AA933
:102990008BA99CA920E030E040E85FE30E941D0481
:1029A00088232CF481E090E098AB8FA73FC069A901
:1029B0007AA98BA99CA920E03FEF4FE757E40E943A
:1029C000BD0318164CF56DA97EA98FA998AD20E01E
:1029D00030E040E251E40E941702DC01CB01BC016F
:1029E000CD010E944100DC01CB0198AB8FA70FC045
:1029F00088EC90E09EA78DA78DA59EA50197F1F785
:102A00009EA78DA78FA598A9019798AB8FA78FA593
:102A100098A9009769F714C069A97AA98BA99CA9FC
:102A20000E944100DC01CB0198AB8FA78FA598A92C
:102A30009CA78BA78BA59CA50197F1F79CA78BA7BB
:102A40000E94ED0FFE01EA5AFF4F8081882331F08A
:102A5000FE01EB5AFF4F8081882371F4FE01EA5A90
:102A6000FF4F80E18083DE01AB5ABF4FFE01E45A85
:102A7000FF4F80818C93D7C2DE01A85ABF4FFE0161
:102A8000E85AFF4F808181508C93FE01E85AFF4F36
:102A9000DE01A95ABF4F90818C91891708F0FCCEB6
:102AA000C2C2FE01E15AFF4F8081813009F095C119
:102AB000FE01E05AFF4F8081813009F08EC1DE01B6
:102AC000A95ABF4FFE01E45AFF4F98EE8081F92FBB
:102AD000F81B8F2F8C93FE01E85AFF4F108275C1AF
:102AE000FE01E85AFF4F8081482F50E0FE01E45A72
:102AF000FF4F8081282F30E080E190E0821B930B14
:102B0000481759070CF4C5C0FE01E85AFF4FDE0113
:102B1000A05ABF4F80816C910E942010FE01E65A9E
:102B2000FF4F80819181FE01E45AFF4F60810E9436
:102B3000F70FFE01E95AFF4FDE01A05ABF4F808117
:102B40006C910E942010FE01E65AFF4F8081918116
:102B5000FE01E45AFF4F60810E94F70FFE01E35A25
:102B6000FF4F80819181CC01A0E0B0E0BC01CD019C
:102B70000E94A104DC01CB018FA398A7A9A7BAA743
:102B80006FA178A589A59AA520E030E04AEF54E42A
:102B90000E941702DC01CB018BA39CA3ADA3BEA3B3
:102BA0006BA17CA18DA19EA120E030E040E85FE315
:102BB0000E941D0488232CF481E090E09AA389A34D
:102BC0003FC06BA17CA18DA19EA120E03FEF4FE70C
:102BD00057E40E94BD0318164CF56FA178A589A58E
:102BE0009AA520E030E040E251E40E941702DC01A7
:102BF000CB01BC01CD010E944100DC01CB019AA3B5
:102C000089A30FC088EC90E098A38F8F8F8D98A137
:102C10000197F1F798A38F8F89A19AA101979AA3A1
:102C200089A389A19AA1009769F714C06BA17CA11F
:102C30008DA19EA10E944100DC01CB019AA389A332
:102C400089A19AA19E8F8D8F8D8D9E8D0197F1F711
:102C50009E8F8D8F0E94ED0FDE01A95ABF4FFE019E
:102C6000E95AFF4F80818F5F8C93FE01E95AFF4F35
:102C70008081883E09F0A0C0DE01A95ABF4FFE0145
:102C8000E45AFF4F98EE8081292F281B822F8C93C6
:102C9000CAC1FE01E85AFF4FDE01A05ABF4F808132
:102CA0006C910E942010FE01E65AFF4F80819181B5
:102CB000FE01E45AFF4F60810E94F70FFE01E35AC4
:102CC000FF4F80819181CC01A0E0B0E0BC01CD013B
:102CD0000E94A104DC01CB01898F9A8FAB8FBC8F3E
:102CE000698D7A8D8B8D9C8D20E030E04AEF54E425
:102CF0000E941702DC01CB018D8B9E8BAF8BB88FAE
:102D00006D897E898F89988D20E030E040E85FE30F
:102D10000E941D0488232CF481E090E09C8B8B8B17
:102D20003FC06D897E898F89988D20E03FEF4FE706
:102D300057E40E94BD0318164CF5698D7A8D8B8D72
:102D40009C8D20E030E040E251E40E941702DC015B
:102D5000CB01BC01CD010E944100DC01CB019C8B69
:102D60008B8B0FC088EC90E09A8B898B89899A892C
:102D70000197F1F79A8B898B8B899C8901979C8BA2
:102D80008B8B8B899C89009769F714C06D897E892C
:102D90008F89988D0E944100DC01CB019C8B8B8B2D
:102DA0008B899C89988B8F878F8598890197F1F7FC
:102DB000988B8F870E94ED0FDE01A85ABF4FFE014E
:102DC000E85AFF4F80818F5F8C93FE01E85AFF4FD6
:102DD0008081893208F484CE26C1FE01E15AFF4F7A
:102DE0008081882309F01FC1FE01E05AFF4F8081D6
:102DF000813009F018C1DE01A95ABF4FFE01E45A23
:102E0000FF4F808187518C93FE01EA5AFF4F80E18A
:102E10008083FE01E85AFF4F88EE8083F9C0FE01EF
:102E2000E85AFF4FDE01A05ABF4F80816C910E948B
:102E30002010FE01E65AFF4F80819181FE01E45A85
:102E4000FF4F60810E94F70FFE01E45AFF4F80811F
:102E50008031F8F4FE01EA5AFF4FDE01A05ABF4F5D
:102E600080816C910E942010FE01E65AFF4F808104
:102E70009181FE01E45AFF4F60810E94F70FDE014D
:102E8000AA5ABF4FFE01EA5AFF4F808181508C93AE
:102E90001EC0FE01EB5AFF4FDE01A05ABF4F8081DA
:102EA0006C910E942010FE01E65AFF4F80819181B3
:102EB000FE01E45AFF4F60810E94F70FDE01AB5A1A
:102EC000BF4FFE01EB5AFF4F808181508C93FE0172
:102ED000E35AFF4F80819181CC01A0E0B0E0BC01BA
:102EE000CD010E94A104DC01CB018B879C87AD87BB
:102EF000BE876B857C858D859E8520E030E04AEF1E
:102F000054E40E941702DC01CB018F839887A987C4
:102F1000BA876F81788589859A8520E030E040E81E
:102F20005FE30E941D0488232CF481E090E09E83DF
:102F30008D833FC06F81788589859A8520E03FEF3A
:102F40004FE757E40E94BD0318164CF56B857C854E
:102F50008D859E8520E030E040E251E40E9417021A
:102F6000DC01CB01BC01CD010E944100DC01CB01A1
:102F70009E838D830FC088EC90E09C838B838B8134
:102F80009C810197F1F79C838B838D819E810197B2
:102F90009E838D838D819E81009769F714C06F8118
:102FA000788589859A850E944100DC01CB019E834A
:102FB0008D838D819E819A83898389819A810197EE
:102FC000F1F79A8389830E94ED0FFE01EA5AFF4FC1
:102FD0008081882331F0FE01EB5AFF4F80818823E6
:102FE00071F4FE01EA5AFF4F80E18083DE01AB5AA3
:102FF000BF4FFE01E45AFF4F80818C9314C0DE0165
:10300000A85ABF4FFE01E85AFF4F808181508C9330
:10301000FE01E85AFF4FDE01A95ABF4F90818C9103
:10302000891708F0FCCEFE01E75AFF4F8081C05A95
:10303000DF4F0FB6F894DEBF0FBECDBFCF91DF914B
:103040001F910F910895EF92FF920F931F93DF93BB
:10305000CF93CDB7DEB764970FB6F894DEBF0FBE3F
:10306000CDBF198A1A8A188A1F861E861D86198660
:103070001A861B861C861D821E821F821886198254
:103080001A821B821C820E94AC0C0E94EE0ACE01A6
:1030900042960E94010B898B89898130C1F78A8908
:1030A0008A3058F58F85882341F589859A85AB85C7
:1030B000BC852AE030E040E050E0BC01CD010E9438
:1030C0006C1A9B01AC018A89882F90E0A0E0B0E0E7
:1030D000820F931FA41FB51F89879A87AB87BC8770
:1030E0000E94ED0F89859A85AB85BC85BC01CD0119
:1030F00040E020E00E947B1042C08A898A3008F0BC
:103100003EC08F858823D9F18D819E81AF81B8859E
:103110002AE030E040E050E0BC01CD010E946C1A92
:103120009B01AC018A89882F90E0A0E0B0E0820F7B
:10313000931FA41FB51F8D839E83AF83B8870E9402
:10314000ED0F89859A85AB85BC85BC01CD0140E03A
:1031500020E00E947B10888960E00E9420108F850B
:103160000E94090C8889282F2F5F8D819E81AF8155
:10317000B885BC01CD01422F20E00E947B108985DB
:103180009A85AB85BC85BC01CD010E940F07888B59
:103190008D819E81AF81B885BC01CD010E940F0752
:1031A0008E878A898F32E1F48E858823C9F48889D5
:1031B0008823B1F00E94ED0F89859A85AB85BC8587
:1031C000BC01CD0140E020E00E947B10888960E0D6
:1031D0000E9420108FE20E94090C8FE28F875CC052
:1031E0008A898A32E1F48E858823C9F48889882304
:1031F000B1F00E94ED0F89859A85AB85BC85BC0135
:10320000CD0140E020E00E947B10888960E00E94B0
:1032100020108AE20E94090C8AE28F873DC08A89C9
:103220008B32E1F48E858823C9F488898823B1F034
:103230000E94ED0F89859A85AB85BC85BC01CD01C7
:1032400040E020E00E947B10888960E00E9420100E
:103250008BE20E94090C8BE28F871EC08A898D3217
:10326000D9F48E858823C1F488898823A9F00E9427
:10327000ED0F89859A85AB85BC85BC01CD0140E009
:1032800020E00E947B10888960E00E9420108DE27F
:103290000E94090C8DE28F878A898D3091F40E94FB
:1032A000ED0F19861A861B861C861D821E821F82C0
:1032B0001886188A1E861F861D8619821A821B820E
:1032C0001C828A898D3309F0E2CE8E85882309F429
:1032D000DECE81E08D870E94ED0F89859A85AB85D2
:1032E000BC85BC01CD0140E020E00E947B108889B4
:1032F00060E00E9420108F850E94090C8889282F89
:103300002F5F8D819E81AF81B885BC01CD01422F99
:1033100020E00E947B1098898E85890F8F5F60E086
:103320000E9420108DE30E94090C8F85E82EFF2457
:10333000FC8AEB8A0B891C890B32110509F4A3C0A6
:103340002B893C892C32310534F48B899C898A3253
:10335000910551F1B2C00B891C890D32110509F498
:1033600040C02B893C892F32310509F0A6C08985E0
:103370009A85AB85BC852D813E814F815885BC01E6
:10338000CD010E948B1ADA01C90189839A83AB832C
:10339000BC8389819A81AB81BC81BC01CD0140E0B5
:1033A00021E00E947B1089C089859A85AB85BC8508
:1033B0002D813E814F815885BC01CD010E946C1A40
:1033C000DC01CB0189839A83AB83BC8389819A8199
:1033D000AB81BC81BC01CD0140E021E00E947B10AB
:1033E0006CC02D813E814F81588589859A85AB853A
:1033F000BC8582179307A407B50730F52D813E8160
:103400004F81588589859A85AB85BC8579018A016C
:10341000E81AF90A0A0B1B0BD801C70189839A83A2
:10342000AB83BC8380E061E00E9420108F850E9406
:10343000090C89819A81AB81BC81BC01CD0141E03D
:1034400021E00E947B1039C029853A854B855C8537
:103450008D819E81AF81B88579018A01E81AF90AC8
:103460000A0B1B0BD801C70189839A83AB83BC83EA
:1034700089819A81AB81BC81BC01CD0140E021E012
:103480000E947B101AC029853A854B855C858D8109
:103490009E81AF81B885820F931FA41FB51F8983BA
:1034A0009A83AB83BC8389819A81AB81BC81BC0147
:1034B000CD0140E021E00E947B1089819A81AB819F
:1034C000BC8189879A87AB87BC871D821E821F8239
:1034D00018861E861D86DBCD629FD001739FF0018A
:1034E000829FE00DF11D649FE00DF11D929FF00D94
:1034F000839FF00D749FF00D659FF00D9927729FCB
:10350000B00DE11DF91F639FB00DE11DF91FBD0155
:10351000CF0111240895A1E21A2EAA1BBB1BFD01A5
:103520000DC0AA1FBB1FEE1FFF1FA217B307E407A2
:10353000F50720F0A21BB30BE40BF50B661F771FFA
:10354000881F991F1A9469F76095709580959095DA
:103550009B01AC01BD01CF0108952F923F924F9284
:103560005F926F927F928F929F92AF92BF92CF9213
:10357000DF92EF92FF920F931F93CF93DF93CDB71C
:10358000DEB7CA1BDB0B0FB6F894DEBF0FBECDBF94
:1035900009942A88398848885F846E847D848C8465
:1035A0009B84AA84B984C884DF80EE80FD800C816E
:1035B0001B81AA81B981CE0FD11D0FB6F894DEBF51
:0C35C0000FBECDBFED010895F894FFCFC1
:1035CC0000000000000000000001020203030303DE
:1035DC000404040404040404050505050505050597
:1035EC000505050505050505060606060606060677
:1035FC00060606060606060606060606060606065F
:10360C000606060606060606070707070707070746
:10361C00070707070707070707070707070707072E
:10362C00070707070707070707070707070707071E
:10363C00070707070707070707070707070707070E
:10364C0007070707070707070808080808080808F6
:10365C0008080808080808080808080808080808DE
:10366C0008080808080808080808080808080808CE
:10367C0008080808080808080808080808080808BE
:10368C0008080808080808080808080808080808AE
:10369C00080808080808080808080808080808089E
:1036AC00080808080808080808080808080808088E
:1036BC00080808080808080808080808080808087E
:1036CC0008080808080808080102032F0405062A40
:0836DC000708092D0D003D2B2C
:00000001FF
